:0600000002008B0237A58F
:01000B0032C2
:0100130032BA
:01001B0032B2
:0100230032AA
:01002B0032A2
:03003300022F9AFF
:01003B003292
:01004300328A
:03004B00023F066B
:030053000206980A
:03005B0002096F28
:01006300326A
:03006B0002301E42
:01007300325A
:01007B003252
:03008300023ABA84
:0300E7000200868E
:030086000219C09C
:1000EA00AF83E58290F554F0EFA3F075E10490DF59
:1000FA003BE0FFBF01F890F554E0FEA3E0FF90DF7C
:10010A0006EEF075E10290DF3BE0FFBF0DF8227EBC
:10011A00007F0090FC28E0FCA3E0FD8E028F03C361
:10012A00EA9CEB9D5038EE2400FCEF34F0FD90FC85
:10013A0026E0F512A3E0F5138A828B83C007C00676
:10014A00C005C004124486AA82D004D005D006D0C5
:10015A00078C828D83EAF00EBE00B80F80B522E5C7
:10016A008290F556F0E0FFE59CC39FF59CE59C2440
:10017A00FAF59C439E10D2BA22539EEF22AF83E532
:10018A008290F55AF0EFA3F090FC21E060139046BC
:10019A004812311F90FC21E0F5821231617582EF1D
:1001AA002290FC217406F090DF3BE0FFBF1302802F
:1001BA00F6C29190F557E0FEA3E0FF90FC88EEF0BE
:1001CA00EFA3F090FC8274F1F0E4A3F090FC1874B1
:1001DA0072F074F3A3F090FC80E4F0A3F090FC3387
:1001EA00F090FC7CF090FC32F090FC7E04F0E4A3EA
:1001FA00F090FC7D7402F090F55CE4F0900000123F
:10020A00032E90F55AE0FEA3E0FF90F559E0FD7B3E
:10021A00007C008D017A00C3EB99EC9A50548B0252
:10022A00EA75F0F0A42EF9E43FFA90F55C74F0F068
:10023A0089828A83C007C006C005C004C0031203AE
:10024A002EAA82D003D004D005D006D007EA601BBC
:10025A0090469AC00212311FD00290FC21E4F08A23
:10026A0082C002123161D0028A82220BBB00A40C26
:10027A0080A190FC8BE030E33390FC88E0FEA3E0A1
:10028A00FFEE540F602690FC88E0FEA3E053060FB1
:10029A007F007410C39EFEE49FFF90FC88E0FCA3DD
:1002AA00E0FD90FC88EE2CF0EF3DA3F090FC88E096
:1002BA00FEA3E0FFC374FF9EE49F502690FC88E0F3
:1002CA00FEA3E07F0090DF02EEF090DF04E053E04F
:1002DA00FCF090DF04E043E002F090FC8A7401F045
:1002EA00801290FC88E0FEA3E0FF90DF02EEF0901F
:1002FA00FC8AE4F075E1037E607FEA90DF3BE0FD73
:10030A00BD130280091EBEFF011FEE4F70EDD29190
:10031A00EE4F700C90FC467413F09046B212311FE7
:10032A0075820022AF83E58290F55DF0EFA3F0902D
:10033A00F55CE0FF240F500A9046C312311F758204
:10034A00FF22EF703E90FC32E4F090FC32E0FE9027
:10035A00FC7DE0FDC3EE9D502190FC32E075F0F18A
:10036A00A42472F58274F335F0F583E4F090FC323C
:10037A00E0FE0E90FC32EEF080D090FC32E4F07594
:10038A0082002290FC21E0FE601DBE061E90FC3217
:10039A00E0601890DF3BE0FEBE1302800E90FC2165
:1003AA007407F07582ED227582ED2290FC32E075B9
:1003BA00F0F1A42472FD74F335F0FE8D828E83E091
:1003CA00600A90FC467418F07582FE228D828E8334
:1003DA0074FFF090FC32E075F0F1A42472FD74F31E
:1003EA0035F0FE0DBD00010E7C0090F55DE0FAA32C
:1003FA00E0FB8A128B138C148F037F008B158F16E8
:10040A008D828E838CF0C007C00312435BD003D069
:10041A000790FC8BE020E3030204D890FC32E075DD
:10042A00F0F1A42472FD74F335F0FE0DBD00010E47
:10043A0090FC5DEBF0EFA3F08D828E831240D1AE7B
:10044A008290F55CEEF090FC8BE0FF5307047D0090
:10045A00BF0441BD003E90FC32E075F0F1A4247265
:10046A00FD74F335F0FF0DBD00010F8E037C009083
:10047A00FC8BE054F0FA90FC61EDF0EFA3F090FCF5
:10048A0063EBF0ECA3F090FC65EAF08D828F8312A7
:10049A004107803A90FC32E075F0F1A42472FD74B1
:1004AA00F335F0FF0DBD00010F7C0090FC8BE0548A
:1004BA00F0FB90FC68EDF0EFA3F090FC6AEEF0EC34
:1004CA00A3F090FC6CEBF08D828F8312415090FC6C
:1004DA0032E075F0F1A42472FE74F335F0FF90F562
:1004EA005CE08E828F83F090FC32E0FF0F90FC324A
:1004FA00EFF090FC7DE0FEEFB5060590FC32E4F0EB
:10050A0075820022AF83E58290F55FF0EFA3F09049
:10051A00FC21E0FF6014BF0102800F9046DD12311A
:10052A001F90FC21E0F58212316112018390FC2AAE
:10053A00E4F0A3F090FC2AE0FEA3E0FF8E828F8312
:10054A0012061890DF3BE0FFBF0DF890DF3AE0FF9C
:10055A0053077F7E00C3EF9460EE64809480402747
:10056A0090FC2AE0FEA3E0FF0EBE00010F90FC2AD9
:10057A00EEF0EFA3F0D29190000A123DB1C2919031
:10058A00000A123DB180AD90FC217402F090FC4744
:10059A00E0FCA3E0FDA3E0A3E090FC2CECF0EDA3CB
:1005AA00F090F55FE0FEA3E0FF90FC30EEF0EFA3E1
:1005BA00F02290FC21E4F090FC47E0FCA3E0FDA3CC
:1005CA00E0A3E090FC2CECF0EDA3F02290FC217467
:1005DA0004F090FC47E0FCA3E0FDA3E0A3E090FC5C
:1005EA002CECF0EDA3F02290FC217405F090FC3481
:1005FA00E4F0A3F090FC47E0FCA3E0FDA3E0A3E055
:10060A0090FC2CECF0EDA3F0758200020169AF8337
:10061A00E58290F561F0EFA3F090F561E0FEA3E0CA
:10062A00FFEE2400F582EF34F0F583E0FF7E008FC1
:10063A00828E830200EAAF83E58290F563F0EFA32E
:10064A00F090F563E0FEA3E0FF90F370EEF0EFA305
:10065A00F0222290FC2AE0FEA3E0FF0EBE00010F6A
:10066A0090FC2AEEF0EFA3F0C3EE9470EF940340EF
:10067A000790FC2AE4F0A3F090FC2AE0FEA3E0FF36
:10068A00EE2400F582EF34F0F583E0F58222C021F2
:10069A00C0E0C0F0C082C083C007C006C005C00465
:1006AA00C003C002C001C000C0D075D00090FC1DBC
:1006BA00E02401FEA3E03400FF90FC1DEEF0EFA35E
:1006CA00F090FC22E0FCA3E0FDEEB5040BEFB505CB
:1006DA000790FC1DE4F0A3F090FC1DE0FEA3E0FFF0
:1006EA00BE0005BF0002800BBE0105BF0002806884
:1006FA0002085690FC1DE0FEA3E08E077E00AC9C2B
:10070A007D00EC4206ED420790FC2EEEF0EFA3F0DE
:10071A0090FC2AE0FEA3E0FF0EBE00010F90FC2A27
:10072A00EEF0EFA3F090FC28E0FCA3E0FDC3EE9C02
:10073A00EF9D400790FC2AE4F0A3F090DF3BE0FF36
:10074A00BF130302095290FC2AE0FEA3E0FF8E8247
:10075A008F8312061802095290FC21E0FFBF05029E
:10076A008003020952900019123DB190F567741C7A
:10077A00F090FC2AE090F568F090FC2AE0A3E09063
:10078A00F569F090F56A7442F090F56B744CF0904C
:10079A00F56C7441F090F56D7448F090F56E744202
:1007AA00F090F56F744CF090F5707441F090F5711B
:1007BA007448F090F5727442F090F573744CF090AE
:1007CA00F5747441F090F5757448F090F5767442BA
:1007DA00F090F577744CF090F5787441F090F579D3
:1007EA007448F090F57A7442F090F57B744CF0906E
:1007FA00F57C7441F090F57D7448F090F57E744272
:10080A00F090F57F744CF090F5807441F090F5818A
:10081A007448F090F5827420F090FC36741CF0E471
:10082A00A3F090FC38F0A3F090FC3AF0A3F090F516
:10083A00681233C190FC34E0FEA3E0FF0EBE000153
:10084A000F90FC34EEF0EFA3F002095290FC21E085
:10085A00FFBF03028065BF04028008BF0502800350
:10086A0002095290FC2CE0FEA3E0FF90FC47E0FA5C
:10087A00A3E0FBA3E0FCA3E0FD8E008F01E4FEFFF2
:10088A00EAC398FAEB99FBEC9EFCED9FFDC37464F6
:10089A009AE49BE49CE49D502290470B12311F90EE
:1008AA00FC217405F090FC47E0FCA3E0FDA3E0FE08
:1008BA00A3E0FF90FC2CECF0EDA3F090FC33E07584
:1008CA00F0F1A42472FE74F335F0FF8E828F83E078
:1008DA006076900019123DB190FC33E075F0F1A4F6
:1008EA002472FE74F335F0FF90DF04E05401B40182
:1008FA00009200E4332EFDE43FFC8E828F83E09069
:10090A00FC36F0E4A3F090FC38F0A3F090FC3AF047
:10091A00A3F08D828C831233C190FC33E075F0F121
:10092A00A42472F58274F335F0F583E4F090FC3375
:10093A00E0FF0F90FC33EFF0BF0200400590FC335C
:10094A00E4F090472912311FD0D0D000D001D00254
:10095A00D003D004D005D006D007D083D082D0F0FF
:10096A00D0E0D021323290FC21E4F090FC32F090B9
:10097A00FC33F090FC2AF0A3F090FC267453F0E4C8
:10098A00A3F090FC287453F0E4A3F090FC2EF0A39B
:10099A00F090FC2CF0A3F090FC227406F0E4A3F093
:1009AA0090FC24F0A3F090FC30F0A3F090FC34F01B
:1009BA00A3F012011990FC21E4F0759DDC859E9E3E
:1009CA00439E0443CB1022020970900DE2121EF6D8
:1009DA0090FC47E4F0A3F0A3F0A3F01209D190F53C
:1009EA0083E4F090F5847412F074F8A3F02290FC7A
:1009FA0021E0FFBF0003020D1DBF0103020BF3BF7D
:100A0A000203020AF9BF0303020D1DBF0403020D0C
:100A1A001DBF0503020CFEBF060122BF400280066D
:100A2A00BF410280412275E10490DF3BE0FFBF0134
:100A3A00F890DF0374E5F090DF047404F090DF07A8
:100A4A007412F090DF08E4F090DF147410F090DF75
:100A5A0017E043E0C0F090FC217441F090F58474F3
:100A6A0012F074F8A3F090F583E4F090FC34E0FE01
:100A7A00A3E0FF90F583E0FDFB7C00C3EB9EEC9FB7
:100A8A00504590DF06EDF075E10490DF3BE0FFBFD3
:100A9A0001F875E10290DF3BE0FFBF0DF89000021C
:100AAA00123DB190F584E0FEA3E0FF90F583E02EBD
:100ABA00FEE43FFF90DF3AE0FD8E828F83F090F5EF
:100ACA0083E02401F080A475E10490DF3BE0FFBFDE
:100ADA0001F890FC34E0FF8F3375340090F584E020
:100AEA00F535A3E0F5367532017582430219F2E550
:100AFA000B7003020BE190FC45740DF0539AFEE56E
:100B0A000B20E403020BE190FC217403F090FC1F1C
:100B1A00E0FEA3E08E8212016990473712311F90DE
:100B2A00FC1FE0FEA3E0FF8E828F8312317C90F8D7
:100B3A0011E07E0025E0CEE42412FFEE34F8FE8FA9
:100B4A00828E8312311F90F811E0B401009201E401
:100B5A0033FF90F583F0EF2416FDE434FCFE8D821A
:100B6A008E83E0706F90DF04E030E0348F057E0002
:100B7A00ED2DCEE4FD2412F582EE34F8F583E0FC87
:100B8A008C33EDF5342412FDEE34F8FE74012DF5A4
:100B9A0035E43EF5367532017582421219F2802328
:100BAA0090DF02E0FE8E33E4F534FEEF2FCEE4242C
:100BBA0012FFEE34F8FE8F358E3675320175824299
:100BCA001219F290F583E0FF2416F582E434FCF55D
:100BDA00837401F0530BEFD20110AF02C201750BFF
:100BEA0000A20192AF439A0122E50B7003020CECBA
:100BFA0090FC45740DF0539AFEE50B20E403020CB9
:100C0A00EC90F811E0B40100920190F583E433F01E
:100C1A0090474C12311F90F583E07E0025E0CEE428
:100C2A002412FFEE34F8FE8F828E8312317C90F507
:100C3A0083E07E0025E0CEE42412FFEE34F8FE8F36
:100C4A00828E8312311F90F811E0B401009201E400
:100C5A0033FF90F583F0EF2416FDE434FCFE8D8219
:100C6A008E83E0706F90DF04E030E0348F057E0001
:100C7A00ED2DCEE4FD2412F582EE34F8F583E0FC86
:100C8A008C33EDF5342412FDEE34F8FE74012DF5A3
:100C9A0035E43EF5367532017582421219F2802327
:100CAA0090DF02E0FE8E33E4F534FEEF2FCEE4242B
:100CBA0012FFEE34F8FE8F358E3675320175824298
:100CCA001219F290F583E0FF2416F582E434FCF55C
:100CDA00837401F0D20110AF02C201530BEFA201DB
:100CEA0092AFD20110AF02C201750B00A20192AFFE
:100CFA00439A012290FC34E0FEA3E0FF90FC28E036
:100D0A00FCA3E0FDC3EE9CEF9D50012290FC2174F0
:100D1A0004F022E50B70012290FC45740DF0E50BFE
:100D2A00543070012290F811E0B401009201E433CA
:100D3A00FF90F583F0EF2416FDE434FCFE8D828EDD
:100D4A0083E06003020DD390DF04E030E0348F05C6
:100D5A007E00ED2DCEE4FD2412F582EE34F8F58303
:100D6A00E0FC8C33EDF5342412FDEE34F8FE740108
:100D7A002DF535E43EF5367532017582421219F2C7
:100D8A00803690FC77E0600A90FC7AE0FDA3E0FEF2
:100D9A00800890DF02E0FCFD7E007C00EF2FCCE4AF
:100DAA002412FFEC34F8FC8F358C367532018D3302
:100DBA008E347582421219F290F583E0FF2416F5FB
:100DCA0082E434FCF5837401F0D20110AF02C2014F
:100DDA00530BCFA20192AF2290F7C3E0FDA3E0FE2E
:100DEA00A3E0FF90F7C8E0FCBC4202800302174F61
:100DFA0090F7C9E0FC24BE5003021741EC240A8391
:100E0A00F582EC244683F583E4734141E81F419B54
:100E1A00486679B1E90C4FED41419F1C43B6DBEEC0
:100E2A005AD50541414141414141AD2F7D7396411A
:100E3A004141414141414141414141414141414198
:100E4A004141414141414141414198D217170E1157
:100E5A00170F10101010101111111717141515155E
:100E6A001515161315171717171717171617161517
:100E7A0015171717171717171717171717171717FA
:100E8A001717171717171717171717170E0EC00761
:100E9A00C006C005120183D005D006D00790FC21F8
:100EAA007440F08D828E838FF01245E5FC7B0090B2
:100EBA00FC34ECF0EBA3F090F7E9EDF0EEA3F0755B
:100ECA008201122DE602174F90FC21E4F090F7E917
:100EDA00EDF0EEA3F0758201122DE602174F90FC99
:100EEA0021E0600990476612311F02174F8D828EEA
:100EFA00838FF01245E5FC7B0090F586ECF0EBA3BE
:100F0A00F08D828E83A3E0FAE4F92CFCEA3BFB9095
:100F1A00F586ECF0EBA3F08D828E83A3A3A3A3E066
:100F2A00FA8A0889098D828E83A3A3A3A3A3E0FA70
:100F3A00E42508F508EA3509F50990FC1AE4F0A356
:100F4A00F074062DF9E43EFA90FC36ECF0EBA3F0CF
:100F5A0090FC38E4F0A3F090FC3AE508F0E509A328
:100F6A00F089828A83C007C006C0051233C1AC82E9
:100F7A00D005D006D0078D828E838FF0EC12444EB6
:100F8A0090F7E9EDF0EEA3F0758201122DE6021753
:100F9A004F8D828E838FF01245E590FC7AF0E4A3A0
:100FAA00F08D828E83A3E0FB7C0090FC7AE0F9A3AB
:100FBA00E0FA90FC7AEC29F0EB3AA3F090FC7AE0A4
:100FCA00FBA3E04B604590FC777401F090FC78E05D
:100FDA00FBA3E0FC4B704812330890FC7AE0FBA3B9
:100FEA00E0FC90FC78EBF0ECA3F090FC78E0FBA33B
:100FFA00E090DF02EBF090DF04E053E0FCF090DFDA
:10100A0004E043E002F01232BC801490FC77E4F072
:10101A0090FC78F0A3F090FC7AF0A3F012330890D9
:10102A00F7C8E0FC90F7C9E0F53275357A7536FCF9
:10103A007533017534008C821219F202174F8D82B2
:10104A008E838FF01245E590FC8BF090F7E9EDF076
:10105A00EEA3F0758201122DE602174F90F7E9749C
:10106A008BF074FCA3F0758201122DE602174F90E3
:10107A00FC8BE054F0FC90FC597406F090FC5AEC9E
:10108A00F08D828E838FF0C007C006C00512407CA7
:10109A00D005D006D00790F7E9EDF0EEA3F07582FF
:1010AA0010122DE602174F90FC8BE054F0FC90FCD6
:1010BA00597404F090FC5AECF08D828E838FF0C044
:1010CA0007C006C00512407CD005D006D00790F7AD
:1010DA00E9EDF0EEA3F0758210122DE602174F8D9E
:1010EA00828E838FF01245E590FC8CF0E053E0018C
:1010FA00F090F7E9EDF0EEA3F0758201122DE60209
:10110A00174F90F7E9748CF074FCA3F07582011202
:10111A002DE602174F8D828E838FF01245E5FC7BF8
:10112A00008C828B83C007C006C005120640D0051A
:10113A00D006D00790F7E9EDF0EEA3F07582011220
:10114A002DE602174F90FC21E0601C8D828E838F62
:10115A00F074EF12444E90F7E9EDF0EEA3F07582C9
:10116A0001122DE602174F8D828E838FF01245E50C
:10117A00FC7B0090F586ECF0EBA3F08D828E83A3C6
:10118A00E0FAE42CFCEA3BFB90F586ECF0EBA3F0EA
:10119A008D828E83A3A3E0FA90FC1AE4F0A3F07484
:1011AA00032DF8E43EF990F557ECF0EBA3F090F537
:1011BA0059EAF088828983C007C006C005120187F0
:1011CA00AC82D005D006D0078D828E838FF0EC12C8
:1011DA00444E90F7E9EDF0EEA3F0758201122DE688
:1011EA0002174F8D828E838FF01245E5FB7C0090AB
:1011FA00F586EBF0ECA3F0EB4C60030212E690FCF0
:10120A0088E0F9A3E0FA49601C90DF3BE0FABA13E0
:10121A0014900028C007C006C005123DB1D005D001
:10122A0006D00780D990FC88E0F9A3E049606B906A
:10123A00478BC007C006C00512311F90FC88E0F931
:10124A00A3E0FA89828A8312317C90F372E0F582F4
:10125A0012316190F463E0F582123161D005D00653
:10126A00D00790FC467412F08D828E838FF074EC56
:10127A0012444EC291C007C006C005123297D0056B
:10128A00D006D00790FC21E4F090F7E9EDF0EEA348
:10129A00F0758201122DE602174FC29190FC21E4EB
:1012AA00F08D828E838FF012444E90479FC007C004
:1012BA0006C00512311F90FC1AE0F9A3E0FA8982F0
:1012CA008A8312317CD005D006D00790F7E9EDF079
:1012DA00EEA3F0758201122DE602174F90FC21E071
:1012EA00FABA060280619047AFC007C006C005126D
:1012FA00311FD005D006D00790FC46E0FABA121B7F
:10130A008D828E838FF074EC12444E90F7E9EDF0E3
:10131A00EEA3F0758201122DE6801F90FC46741729
:10132A00F08D828E838FF074EF12444E90F7E9EDC0
:10133A00F0EEA3F0758201122DE6C2911232979057
:10134A00FC21E4F002174F74012DF9E43EFA90F5FE
:10135A005CEBF089828A83C007C006C00512032E9F
:10136A00AC82D005D006D0078D828E838FF0EC1226
:10137A00444E8D828E838FF01245E5FBEC603BBBB9
:10138A00FE0280369047B8C007C006C00512311F5A
:10139A00D005D006D0078D828E838FF01245E5F5F1
:1013AA0082C007C006C005123161C291123297D0BD
:1013BA0005D006D00790FC21E4F090F7E9EDF0EEB5
:1013CA00A3F0758201122DE602174F8D828E838F4C
:1013DA00F01245E5FB7C0090F586EBF0ECA3F0C338
:1013EA0074F09BE49C50199046C312311F90F7E9A0
:1013FA007486F074F5A3F0758201122DE602174F78
:10140A0090FC32E075F0F1A42472F974F335F0FA25
:10141A0089828A83E060199047C512311F90F7E9E3
:10142A007486F074F5A3F0758201122DE602174F47
:10143A0089828A83EBF090FC32E075F0F1A4247281
:10144A00FB74F335F0FC0BBB00010C7A0074012D20
:10145A00F8E43EF9881289138A1490F586E0F515A6
:10146A00A3E0F5168B828C838AF012435B90FC32E0
:10147A00E0FC0C90FC32ECF0BC0200400590FC321F
:10148A00E4F090F7E97486F074F5A3F0758201121E
:10149A002DE602174F8D828E838FF01245E5FC7B75
:1014AA000090FC26ECF0EBA3F090FC26E0F9A3E018
:1014BA00FAC374709C74039B402E74022DFBE43EA5
:1014CA00FC8B128C1375140089158A1690F000751E
:1014DA00F00012435B90F7E97426F074FCA3F075F0
:1014EA008202122DE602174F90F7E974E6F074476C
:1014FA00A3F0758208122DE602174F90FC26E0FC35
:10150A0090F7E97400F074F0A3F08C82122DE602D1
:10151A00174F12065D7B008B8312061890FC2AE097
:10152A00FBA3E0FC90F7E9EB2400F0EC34F0A3F025
:10153A00758201122DE602174F8D828E838FF0126B
:10154A0045E5FC7B008C828B83C007C006C0051270
:10155A0000EAD005D006D00790F7E9EDF0EEA3F047
:10156A00758201122DE602174F758200C007C00668
:10157A00C005120169D005D006D00790F7E9EDF051
:10158A00EEA3F0758201122DE602174FC007C006BE
:10159A00C005120183D005D006D00790F7E9EDF017
:1015AA00EEA3F0758201122DE602174F8D828E830B
:1015BA008FF01245E5FC7B0090FC22ECF0EBA3F0E7
:1015CA0090F7E9EDF0EEA3F0758201122DE602170D
:1015DA004F90F7E97422F074FCA3F0758204122D7F
:1015EA00E602174F8D828E838FF0C007C006C005B2
:1015FA001230DED005D006D0078D828E838FF0128E
:10160A0045E5F582C007C006C005123161D005D094
:10161A0006D0078D828E838FF01245E5FC7B008C05
:10162A00128B138B147515158B1690FC2175F0000F
:10163A00C007C006C00512435BD005D006D007908C
:10164A00F7E9EDF0EEA3F0758215122DE602174FB9
:10165A0090FC1DE0FBA3E0FC90FC24EBF0ECA3F073
:10166A0090F7E97421F074FCA3F0758215122DE647
:10167A0002174F8D828E838FF01245E5FC7B008C1A
:10168A00828B83C007C006C00512050ED005D0069E
:10169A00D00790F7E9EDF0EEA3F0758201122DE67E
:1016AA0002174F90FC47E0F9A3E0FAA3E0A3E09009
:1016BA00FC2CE9F0EAA3F08D828E838FF01245E5C7
:1016CA00FC90FC21F090FC21E0FBEC24FA4046EB74
:1016DA002B9016DF73800A8008800680268024807B
:1016EA0011C007C006C005120183D005D006D00775
:1016FA008023C007C006C0051205F1D005D006D068
:10170A00078012758200C007C006C005120169D0A1
:10171A0005D006D00790F7E9EDF0EEA3F075820147
:10172A00122DE6802090F7E97421F074FCA3F0757D
:10173A008201122DE6800E90F7E9EDF0EEA3F07526
:10174A008201122DE6900000222290F7D1E0FFBF1D
:10175A00013990F7B1E0FEA3E0FF90F7D4E0FCA3D3
:10176A00E0FD90F7B4E0FAA3E0FBEA4B601D8E823D
:10177A008F83E0F9A3AE82AF838C828D83E9F0A3D5
:10178A00AC82AD831ABAFF011B80DF90F7BAE0542E
:10179A00FDF090DE11E043E008F022AE82AF83E074
:1017AA00FD20E70302189E8E828F83A3E0FD601D51
:1017BA00BD0102802ABD0202803BBD0302805ABDE0
:1017CA0004028076BDFE0302186002189E75370275
:1017DA0075380090FC4575F000121C9D02189E9009
:1017EA00DE00E0FD7C007539288C3A8D828C8312EC
:1017FA001D1102189E8E828F83A3A3E0FCA3E0FD35
:10180A0074062EF582E43FF583E0F539A3E0F53A54
:10181A008C828D83121D11807B8E048F057B007450
:10182A00062EF582E43FF583E0F537A3E0F5388C20
:10183A00828D838BF0121C9D805A90F7B1E0FBA336
:10184A00E0FCA3E0FD753910753A008B828C838D1C
:10185A00F0121D11803E74022EFEE43FFF7D0075DA
:10186A004BEE754C47754D807512048D138E828F21
:10187A00838DF0123E5DE5828583F045F06012D2D9
:10188A009190012C123DB1C29190012C123DB18070
:10189A000375C9839000002290DF2FE4F090DF30B7
:1018AA00F090DF31F090DF00740CF090DF01744E9D
:1018BA00F090DF0274FFF090DF037440F090DF04D1
:1018CA00E4F090DF05F090DF06F090DF077406F091
:1018DA0090DF08E4F090DF097424F090DF0A743A8C
:1018EA00F090DF0B74F1F090DF0C74CAF090DF0D0A
:1018FA0074A3F090DF0E7401F090DF0F7423F09060
:10190A00DF107411F090DF117436F090DF12740753
:10191A00F090DF13740FF090DF147418F090DF1555
:10192A0014F090DF16746CF090DF177403F090DFF8
:10193A00187440F090DF197491F090DF1A7456F021
:10194A0090DF1B7410F090DF1C74E9F090DF1D74B7
:10195A002AF090DF1EE4F090DF1F741FF090DF235F
:10196A007488F090DF247431F090DF257409F090C8
:10197A00DF2E74C0F090DF07C4F090DF097425F001
:10198A0090DF0A7495F090DF0B7455F090DF1A74AB
:10199A00B6F090DF1B7410F090DF1C74EAF090DF51
:1019AA001D742AF090DF1EE4F090DF1F741FF022EE
:1019BA00123EDC023F001219BA1231C6123F2D1232
:1019CA001C671233341209D4121C97D2AF121B446B
:1019DA00D291900002123DB1C29190000A123DB11B
:0819EA00122E171209F880F813
:1046480043616E6E6F742063616C6C207472616E6E
:10465800736D69745F6C6F6E67207768696C65202D
:104668004648535320486F7070696E67206F7220F8
:10467800616C72656164792070726F6365737369C8
:104688006E67207472616E736D69745F6C6F6E67AC
:1046980021004D41435F7478282920726574757232
:1046A8006E6564206572726F72006E657665722041
:1046B800656E746572656420545800464853537893
:1046C8006D6974206D65737361676520746F6F2001
:1046D8006C6F6E670046485353207374617465208D
:1046E800656E746572696E672053594E4348494E2A
:1046F800472066726F6D2077726F6E6720737461E2
:1047080074650053594E43485F4D415354455220F8
:104718002D3E2053594E43494E474D41535445521F
:104728000046485353786D697420646F6E65006E57
:104738006574776F726B207061636B657428737929
:104748006E6329006E6574776F726B207061636B9E
:10475800657428646973636F76657279290063727A
:1047680061702C20706C65617365207573652046D7
:10477800485353786D6974282920696E737465618C
:1047880064210064726F706F75742066696E616C65
:1047980020776169742100746F74616C2062797488
:1047A80065732074783A00756E64657272756E0070
:1047B800627566666572206572726F7200737469DD
:1047C8006C6C2077616974696E67206F6E207468FD
:1047D80065206C617374207061636B6574004E4F63
:0B47E800204445414C005253544E0049
:1019F200AF827E017D0090DE0E7405F090FC45748E
:101A020012F0EE7006ED7003021B3A7B107C2790F9
:101A1200DE11E030E00D90FC467401F01BBBFF01CB
:101A22001C80ECEB4C7014D2919003E8123DB1C2D1
:101A3200919003E8123DB190FFFF22BE012E7E007D
:101A420090DE2A7440F0EFF0E532F0E533F0E53451
:101A5200F0C3E533943BE534940040087B3B7C00C3
:101A62007D018021AB33AC347D008019C3E5339412
:101A720040E534940040087B407C007D018006AB49
:101A820033AC347D00AA2974802A42D68526828509
:101A92002783AA368A01E9F0852682852783A3E572
:101AA20035F0852682852783A3A374DEF0852682FE
:101AB200852783A3A3A3742AF0852682852783A37F
:101AC200A3A3A3A3EBF0852682852783A3A3A3A3C5
:101AD200E054E0F0852682852783A3A3A3A3A3A3D2
:101AE200A3E0543F4440F0852682852783A3A3A325
:101AF200A3A3A3A3E054CFF0E52942D6E52942D718
:101B0200E52955D160FAE529F4FA52D190DE0E7436
:101B120005F090DE11E043E001F0E533C39BF533BD
:101B2200E5349CF534EB2535F535EC3536F5369054
:101B3200FC457413F0021A0490FC457414F09000F2
:101B42000022E5227005122E1780F72253BE7F0075
:101B520043BE8090DE0B74F7F090DE0774FFF090C6
:101B6200DE09F0438C10538CFED2BD439A02758974
:101B720000C2C5758B00C2E843A90243B90285269B
:101B820082852783A3A3A3A3E054E0F08526828560
:101B92002783A3A3A3A3A3A3E0549F4420F08526F5
:101BA20082852783A3A3A3A3A3A3A3E04408F0856C
:101BB2002682852783A3A3A3A3A3A3A3E054FC4463
:101BC20001F090DE01E053E0FEF0E4F525F523F5A7
:101BD20024F52290DE0EF090DE107404F090DE13F5
:101BE200F090F7BBE4F090F7BAF090F7AFF0A3F003
:101BF20090F7B17488F074F5A3F0E4A3F090F7B411
:101C0200F0A3F090F7B6F090F7B7F090F7B8F0A322
:101C1200F090DE0E7405F090DE107408F090DE1382
:101C2200F090DE12E043E001F090DE15E043E001C7
:101C3200F090F7CDE4F090F7CCF090F7C1F0A3F07C
:101C420090F7C374A8F074F5A3F0E4A3F090F7C67C
:101C5200F0A3F090F7C8F090F7C9F090F7CAF0A39C
:101C6200F0439A02221231EA858228AF288FF005CA
:101C7200F07401800225E0D5F0FBF529E52875F026
:101C820008A424F9F52674F735F0F52790FC45747D
:101C920002F0021B4ED29022C29022AFF0AE83E538
:101CA2008290F7D6F0EEA3F0EFA3F090F7BBE060DE
:101CB20034D2919003E8123DB1C2919003E8123DF3
:101CC200B1D2919003E8123DB1C2919003E8123D66
:101CD200B1D2919003E8123DB1C2919003E8123D56
:101CE200B190FFFF2290F7D6E0FDA3E0FEA3E0FF54
:101CF20090F7ACEDF0EEA3F0EFA3F090F7AFE5377D
:101D0200F0E538A3F090F7BB7401F090000022AF29
:101D120083E58290F7D9F0EFA3F090F7BBE060344F
:101D2200D2919003E8123DB1C2919003E8123DB105
:101D3200D2919003E8123DB1C2919003E8123DB1F5
:101D4200D2919003E8123DB1C2919003E8123DB1E5
:101D520090FFFF2290F7D9E0FEA3E0FF7D0090F70D
:101D6200ACEEF0EFA3F0EDA3F090F7AFE539F0E5BC
:101D72003AA3F090F7BB7401F0900000227F007E3E
:101D82000290DE0EE4F090F7AFE0FCA3E0FDC3ECBE
:101D92009420ED940040047B2080068C037F017E1A
:101DA2000A8B017A00ECC399FCED9AFD90F7AFEC37
:101DB200F0EDA3F08B05ED603690F7ACE0FAA3E00E
:101DC200FBA3E0FC8A828B838CF01245E590DE2037
:101DD200F090F7ACE0FAA3E0FBA3E0FC0ABA000142
:101DE2000B90F7ACEAF0EBA3F0ECA3F01D80C790E8
:101DF200DE11E04EF0EF600590F7BBE4F02290F7C1
:101E0200BB7402F07582002290F7B1E0FDA3E0FE00
:101E1200A3E0FF90DE11E060FA90DE0EE4F090DEC7
:101E220016E0FC7B0090F7B4ECF0EBA3F090F7BA6D
:101E3200E030E11290F7BB7403F090DE11E043E072
:101E420004F090FFFF2290F7BAE04402F090F7B45A
:101E5200E0FBA3E0FCC374209BE49C501CD2919055
:101E6200012CC007C006C005123DB1C29190012CE1
:101E7200123DB1D005D006D00790F7B4E0FBA3E045
:101E8200FC8D07EB4C601690DE20E0FD8F828E8386
:101E9200F0A3AF82AE831BBBFF011C80E6E52C459D
:101EA2002D6009852C82852D8312008990F7B4E07C
:101EB200FEA3E0FFC3EE9420EF9400501CE52A45F8
:101EC2002B6009852A82852B8312008990DE11E01E
:101ED20043E008F090F7BBE4F090DE11E043E0400D
:101EE200F090F7B4E0FEA3E08E82F5832285822E85
:101EF20085832F228582308583312275370175389B
:101F02000090002575F040021C9DAFF0AE83E58283
:101F120090F7DBF0EEA3F0EFA3F090F7DBE0FDA388
:101F2200E0FEA3E0FF74022DFDE43EFE8D828E836F
:101F32008FF01245E5FD8D2575220122AF827D3D90
:101F42007E30E4BF030104FC600874EEB512037531
:101F520012048D828E83A3E090F7DEF09013E0E00E
:101F6200F8A3E0F9A3E0FAA3E0FBE4B8400AB96CF5
:101F720007BA6104BB730104FBAA1290F7DEE0F911
:101F8200B9FF02804DE9B50732EC600CBA0309EBE8
:101F920060067DE47E13803AEA700890F7DE74FFF3
:101FA200F080D81A8D828E83E02DFDE43EFE8D8274
:101FB2008E83A3E0F990F7DEF080C08D828E83E0FD
:101FC2002DFDE43EFE8D828E83A3E0F990F7DEF0D4
:101FD20080A98D828E8322AFF0AE83E58290F7DFF7
:101FE200F0EEA3F0EFA3F090F7DFE0FDA3E0FEA395
:101FF200E0FF74022DFDE43EFE8D828E838FF0128F
:1020020045E5FBA31245E5FCF97A00B90205BA00E1
:1020120002801BB90757BA005474AF5BF97A008D7E
:10202200828E838FF0E912444EA3EA12444E90F757
:10203200DFE0FDA3E0FEA3E0FF74022DFDE43EFE1F
:102042008D828E838FF01245E5FDA31245E5F58260
:102052008D12121F3EAE82AF8390F7E2EEF0EFA335
:10206200F08E828F83A3A3E0FE7F00801C8C828B84
:1020720012121F3EAC82AD8390F7E2ECF0EDA3F0BA
:102082008C828D83E0FCFE7F0090F7DFE0FCA3E012
:10209200FBA3E0FD74062CFCE43BFB8C828B838D5E
:1020A200F01245E5FCA31245E5FDC3EC9EED9F5001
:1020B200048C068D07EE4F700890DE11E043E0209D
:1020C200F090F7E2E0FCA3E0FD8E398F3A8C828D2E
:1020D20083021D1190DE0EE4F090DE11E0FF30E489
:1020E2000D90F7BBE4F090DE11E043E080F0EF30BA
:1020F200E22490DE11E4F090FC467404F090F7BB09
:10210200E4F0D291900014C007123DB1C291900048
:1021120014123DB1D00790F7BBE0FEBE0319D29175
:10212200900032C007123DB1C291900032123DB10F
:10213200D00790F7BBE4F090F7BBE0600302242ADB
:10214200EF20E00302242A90DE0EE4F090DE16E097
:10215200FF7C3B7D007E40EF601690DE20E0FB8C32
:10216200828D838EF012444EA3AC82AD831F80E732
:10217200E53BFF20E7030222F38F055305607E0053
:10218200BD0005BE0002801EBD2006BE0003022265
:10219200AFBD4006BE00030222BABD6006BE000308
:1021A2000222DF022414741F5FFE7041AD3CBD00A9
:1021B20002801CBD06028005BD0826800C90003BF3
:1021C20075F040121FD9022414121EFD0224147548
:1021D200370275380090480D75F080121C9D02245C
:1021E2001490003B75F04012303C022414BE0144AE
:1021F200AD3CBD00028005BD0A268012753702750E
:10220200380090480D75F080121C9D022414753719
:102212000175380090481075F080121C9D0224143C
:1022220090DE11E043E020F090003B75F040123068
:102232003C022414BE0235AD3CBD00028008BD1232
:1022420003022414801275370275380090480D7508
:10225200F080121C9D02241490DE11E043E020F075
:1022620090003B75F04012303C022414BE032AE475
:10227200B53C1275370275380090480D75F0801222
:102282001C9D02241490DE11E043E020F090003BFC
:1022920075F04012303C02241490003B75F040125D
:1022A200303C90DE11E043E020F002241490DE1175
:1022B200E043E020F0022414E52E452F60131222A1
:1022C200C5800BC02EC02F90003B75F04022022427
:1022D2001490003B75F04012244102241490DE1148
:1022E200E043E020F090003B75F04012303C0224C5
:1022F200148F055305607E00BD0005BE0002801EDE
:10230200BD2006BE00030223CDBD4006BE0003026F
:1023120023E0BD6006BE0003022403022414530717
:102322001FEF7047AE3CBE0103022414BE0303023A
:102332002414BE0502800BBE0703022414BE091733
:10234200800990DE00E53DF002241490003B75F018
:1023520040121F0C02241490003B75F04012303CD6
:1023620090DE11E043E020F0022414BF0128AE3CCD
:10237200BE0103022414BE0303022414BE1103028D
:10238200241490003B75F04012303C90DE11E04383
:10239200E020F0022414BF021FAF3CBF0102807292
:1023A200BF0302806D90003B75F04012303C90DE1E
:1023B20011E043E020F0805A90DE11E043E020F08B
:1023C20090003B75F04012303C804790003B75F026
:1023D2004012303C90DE11E043E020F08034E52EE4
:1023E200452F60121223EB8029C02EC02F90003B94
:1023F20075F04022801C90003B75F0401224418011
:102402001190DE11E043E020F090003B75F04012A5
:10241200303C90DE11E043E040F0E5414542700877
:1024220090DE11E043E008F090F7BBE0FFBF01034C
:10243200121D7F90F7BBE0FFBF0203021E0A22AF0C
:10244200F0AE83E58290F7E4F0EEA3F0EFA3F09014
:10245200F7E4E0FDA3E0FEA3E0FF8D828E838FF020
:102462001245E5FC20E70302263D74012DFAE43E05
:10247200FB8F048A828B838CF01245E5FC6025BCBD
:1024820001028032BC02028043BC030302250ABC63
:10249200040302253FBCFD0302255CBCFE030225AA
:1024A200F70226A375370275380090FC4575F000D7
:1024B200121C9D0226A390DE00E0FC7B00753928E9
:1024C2008B3A8C828B83121D110226A374022DFA81
:1024D200E43EFB8F048A828B838CF01245E5FAA3DB
:1024E2001245E5FB74062DF8E43EF98F04888289D3
:1024F200838CF01245E5F539A31245E5F53A8A8257
:102502008B83121D110226A38D028E038F048A4330
:102512008B448C4574062DF8E43EF98F0488828939
:10252200838CF01245E5F537A31245E5F53885436E
:10253200828544838545F0121C9D0226A390F7B143
:10254200E0FAA3E0FBA3E0FC753910753A008A8239
:102552008B838CF0121D110226A374042DFAE43E23
:10256200FB8F048A828B838CF01245E5FAA3124515
:10257200E5FBBA0446BB004374B64430603D7406C2
:102582002DFBE43EFA8F048B828A838CF01245E5A0
:10259200FBA31245E5FC9030B6E493F97A00C3E957
:1025A2009BEA9C500C89398A3A9030B6121D1180F0
:1025B2000A8B398C3A9030B6121D1190F7E4E0FA8A
:1025C200A3E0FBA3E0FC74042AFAE43BFB8A828BBF
:1025D200838CF01245E5FAA31245E5FBBA0505BB6B
:1025E200000280030226A3E4F539F53A90000012B6
:1025F2001D110226A374022DFAE43EFB8F0490FC07
:102602004B7412F07448A3F07480A3F07512047531
:1026120013008A828B838CF0123E5DE5828583F003
:1026220045F06012D29190012C123DB1C2919001FD
:102632002C123DB1806B75C983806690F7D1E0FCA6
:10264200BC015674022DFDE43EFE8D828E838FF016
:102652001245E5FDA31245E5FE90DE0EE4F090DEA4
:1026620016E0FF7C007511088F828C83C007C006BC
:10267200C005C004123DF6D004D005D006D007EF45
:102682004C601690DE20E0FB8D828E83F0A3AD823B
:10269200AE831FBFFF011C80E690F7BAE054FDFF36
:1026A200F09000002290F7CCE030E10A90FC4674F2
:1026B20005F090FFFF2290DE0E7405F090DE16E02A
:1026C200FF7E0090DE17E0FCE42FF546EC3EF54776
:1026D20090F7CAE0FCA3E0FD4C705890F7C6E4F016
:1026E200A3F090DE2AE090F7C8F090DE2AE090F79F
:1026F200C9F090DE2AE0FD7C0090F7CAEDF0ECA371
:10270200F090DE2AE0FAE4FB2DFDEA3CFC90F7CAE9
:10271200EDF0ECA3F0E54624FCF546E54734FFF581
:1027220047C374049D74029C500990F7CA7404F064
:1027320003A3F0E52955D16012D291900014123D05
:10274200B1C291900014123DB180E890F7C3E0FB52
:10275200A3E0FCA3E090F7C6E0FAA3E0FFEA2BFBBC
:10276200EF3CFCAF2974802F42D6852682852783D1
:1027720074DEF0852682852783A3742AF08526825B
:10278200852783A3A38C078F06EEF08526828527F3
:1027920083A3A3A3EBF0852682852783A3A3A3A308
:1027A200A3A3A3E0543FF0852682852783A3A3A396
:1027B200A3A3A3A3E054CF4410F074052526FEE49E
:1027C2003527FF90DE16E0FD8E828F83EDF07404D4
:1027D2002526FEE43527FF90DE17E08E828F835494
:1027E2001FF5F0E054E045F0F090F7C6E0FEA3E0FC
:1027F200FFEE2546FEEF3547FFC374049E74029F29
:10280200501390F7C6E0FFA3E0FE7404C39FF546A1
:1028120074029EF547C374409546E495475027904D
:10282200FC467406F090DE14E053E0FEF0751104ED
:10283200900005123DF67511108546828547831278
:102842003DF690FFFE22E52942D6E52942D790F7D0
:10285200C6E0FEA3E0FFE5462EFEE5473FFF90F708
:10286200C6EEF0EFA3F0E52955D160FAE529F4525E
:10287200D190F7C6E0FEA3E0FF90F7CAE0FCA3E028
:10288200FDC3EE9CEF9D402B90F7CCE04402F0900C
:10289200F7CAE4F0A3F090DE0E7405F0AE2374BF25
:1028A2005524FF8E238F2490DE14E053E0FEF09037
:1028B20000012290DE0E7405F0AE2374BF5524FF92
:1028C2008E238F2490DE14E053E0FEF0900000226D
:1028D20090F7CCE020E1012290F7C3E0FDA3E0FEF7
:1028E200A3E0FF90F7E7EDF0EEA3F090F7C8E0F574
:1028F2004D74FFB54D028003022DBE90F7C9E0FB77
:10290200BB80005003022DA0EB246C5003022DA0CB
:10291200EB2480FA240A83F582EA241883F583E4FF
:10292200734BDC549181A8C9E01902A0A0A0A08138
:10293200B4142EA05329292B2B2A2B2B2B2C2C2DD4
:102942002D2D2D2C2C2D2D2D2D8D828E838FF01241
:1029520045E5FA74012DF548E43EF5498A4B754C7C
:102962000090F7CAE54BF0E54CA3F0854882854913
:1029720083E0F54A74012548F54DE43549F54EA941
:102982004A8902E4F9254BF54BEA354CF54C90F7B0
:10299200CAE54BF0E54CA3F0854D82854E83E0F805
:1029A200854882854983A3A3884D894EE0FAE425B0
:1029B2004DF9EA354EFA89358A3690F7C8E0FA9031
:1029C200F7C9E0F532854B33854C348A821219F20D
:1029D20090F7CAE4F0A3F0022DB68D828E838FF0B9
:1029E2001245E5FA8D828E83A38A4B754C00E0F87E
:1029F20074022DF54DE43EF54E8802E4254BF8EACB
:102A0200354CFA90F7CEE8F0EAA3F090F7C6E0F979
:102A1200A3E0FAE924FEF54BEA34FFF54CE54B4519
:102A22004C603D90F7CEE0F548A3E0F549740125EE
:102A320048F9E43549FA90F7CEE9F0EAA3F0854D7A
:102A420082854E83E0FAA385824D85834E85488236
:102A5200854983EAF0154B74FFB54B02154C80BDD6
:102A620090F7C8E0FA90F7C9E0F5327535CA7536C5
:102A7200F77533027534008A821219F2022DB6906C
:102A8200F7CCE020E2338D828E838FF01245E5FA97
:102A92008D828E83A38A4D754E00E0F890F7E7741D
:102AA200022DF0E43EA3F08802E4254DF8EA354E0B
:102AB200FA90F7CEE8F0EAA3F090F7CAE0F9A3E0C3
:102AC200FA894D8A4EC37440954DE4954E50067571
:102AD2004D40754E00E9C3954DF9EA954EFA90F7CF
:102AE200CAE9F0EAA3F090F7E7E0F54BA3E0F54C72
:102AF200E54D454E603D90F7CEE0F548A3E0F5493F
:102B020074012548F9E43549FA90F7CEE9F0EAA3D1
:102B1200F0854B82854C83E0FAA385824B85834CFA
:102B2200854882854983EAF0154D74FFB54D02153B
:102B32004E80BD90F7C8E0FA90F7C9E0F5327535DE
:102B4200CA7536F77533027534008A821219F20299
:102B52002DB6D291900002C007C006C005123DB149
:102B6200C291900002123DB1D005D006D00790F775
:102B7200C8E0FA90F7C9E0F53290F7C6E0F533A362
:102B8200E0F5348D358E368A821219F2022DB67531
:102B920035177536488B3275330D753400854D8285
:102BA2001219F2022DB690FC47E0F8A3E0F9A3E077
:102BB200A3E0883589368B32753304753400854D30
:102BC200821219F2022DB67535FC7536478B3275B5
:102BD2003311753400854D821219F2022DB690F729
:102BE200C6E0F533A3E0F5348B328D358E36854D54
:102BF200821219F29000C8123DB11231F9022DB6BB
:102C02007535F37536478B32753309753400854D4A
:102C1200821219F2022DB68D828E838FF01245E553
:102C2200FC74012DF9E43EFABC0202800ABC0302E4
:102C32008021BC0429800DC002C0011232BCD00127
:102C4200D002801AC291C002C001123308D001D052
:102C520002800BC002C0011232DED001D00290F716
:102C6200C8E0FC90F7C9E0F53290F7C6E0F533A36F
:102C7200E0F53489358A368C821219F2022DB6902B
:102C8200F7CA7401F0E4A3F07535367536DF90F7B4
:102C9200C8E0FC90F7C9E0F53290F7CAE0F533A33B
:102CA200E0F5348C821219F290F7CAE4F0A3F00234
:102CB2002DB68D028E048C017C0090FC4B7425F0A5
:102CC2007448A3F07480A3F07512098C138A828968
:102CD200838CF0C007C006C005123E5DE582858385
:102CE200F0D005D006D00745F06003022DB675C9B5
:102CF2008090F7C8E0FC90F7C9E0F53290F7C6E0A3
:102D0200F533A3E0F5348D358E368C821219F2023A
:102D12002DB690FC45E4F090FC46F090F7E9EDF01A
:102D2200EEA3F0758202122DE6022DB690F7CAE4E8
:102D3200F0A3F090F7C8E0FC90F7C9E0F5327533E4
:102D4200107534007535F07536138C821219F280C5
:102D5200638D828E838FF01245E5FC74012DF9E4B8
:102D62003EFABC0002800BBC010F90FC8E7401F095
:102D7200800C90FC8EE4F0800590FC8EE4F090F7DD
:102D8200C8E0FC90F7C9E0F53290F7C6E0F533A34E
:102D9200E0F53489358A368C821219F2801690F762
:102DA200C6E0F533A3E0F5348B328D358E36854D92
:102DB200821219F290F7CCE054FDF022E530453151
:102DC2006019853082853183120089AE82AF83EE2D
:102DD2004F701090F7CCE054FDF02290F7CCE05405
:102DE200FDFFF022E58290F7EBF090F7CCE054FD86
:102DF200F090F7C8E0FF90F7C9E0F53290F7EBE00A
:102E0200FE8E3375340090F7E9E0F535A3E0F53630
:102E12008F820219F2E52330E01175220274FE5509
:102E220023FEAF248E238F2443BE01E52354066084
:102E32002D90FC45740AF075220374FD5523FEAFF4
:102E4200248E238F2490DE01E043E004F0900008FA
:102E5200123DB190DE01E053E0FBF075220190DEFD
:102E62000EE4F090DE11E030E21990DE11E053E062
:102E7200DBF090F7AFE4F0A3F090F7B4F0A3F0909A
:102E8200F7BBF090DE0E7405F090DE11E030E51F26
:102E920090DE11E053E0CFF090FC467408F090F71A
:102EA200C1E4F0A3F090F7C6F0A3F090F7CDF09054
:102EB200DE14E030E61F90DE14E053E09FF090FC59
:102EC200467408F090F7C1E4F0A3F090F7C6F0A3BF
:102ED200F090F7CDF0E52320E2057404B522141238
:102EE2001B4E90FC45740BF074FB5523FEAF248EF1
:102EF200238F24E52330E4111220D674E75523FEF4
:102F0200740F5524FF8E238F24E52430E65490FC61
:102F120045740CF01226A7AE82AF83BEFE41BFFFFE
:102F22003E90F7EC7406F0E4A3F090F7C8E0FF904F
:102F3200F7C9E0F5327535EC7536F775330275343D
:102F4200008F821219F290F7C8E0FF7535EC7536E2
:102F5200F77532017533027534008F821219F2123D
:102F620028D2E52354E07006E52454BD602990FC84
:102F7200467409F0751108900044123DF6852382CB
:102F8200852483751110123DF674E05523FE74BD3D
:102F92005524FF8E238F2422C0E0C082C083C00745
:102FA200C006C005C004C0D075D000E5BE30E6FB47
:102FB20090DE06E0FF7E00E5234207E52442068F0D
:102FC200238E2490DE02E0FDE4CDC4CD6DCD54F01D
:102FD200CD6DFCED4207EC42068F238E2490DE0479
:102FE200E07C0025E0CCE44207EC42068F23EEF5BC
:102FF2002430E11290F7CCE054FEF0AE2374FD557C
:1030020024FF8E238F24758B00C2E8D0D0D004D049
:1030120005D006D007D083D082D0E032C0E0E5BE32
:1030220030E6FBC2AFE58930E70375220353BEFCED
:0B303200758900C2C5D2AFD0E0322289
:1047F300534443437634323000444F4E53444F4E78
:10480300474C452072353533350000000000005217
:1048130053544E00554E494D504C454D454E54450D
:0C482300440052455345545F4E4F57006F
:10303D001201000200000020501D48600101010234
:10304D0003010A0600020000002001000902200011
:10305D0001010080FA0904000002FFFFFF000705CF
:10306D008502400001070505024000010403090423
:10307D000C03520066004300610074001803440005
:10308D006F006E007300200044006F006E0067003B
:10309D006C0065000A0312034D00530046005400F6
:1030AD00310030003000FD00FF2800000000010459
:1030BD00000100000000000000000157494E55536B
:1030CD0042000000000000000000000000000000B1
:1030DD0000AF83E58290F7EEF0EFA3F090F7EEE00E
:1030ED00FEA3E0FF7C007D008E028F038A828B831E
:1030FD00E0F9A3AA82AB83E960070CBC00EE0D805A
:10310D00EB7532F08C338D348E358F367582FE0231
:10311D0019F2AF83E58290F7F0F0EFA3F090F7F09E
:10312D00E0FEA3E0FF7C007D008E028F038A828B80
:10313D0083E493F9A3AA82AB83E960070CBC00ED8D
:10314D000D80EA8E358F367532F08C338D34758265
:10315D00FE0219F2E58290F7F2F07535F27536F749
:10316D007532F17533017534007582FE0219F2AFB7
:10317D0083E58290F7F3F0EFA3F07535F37536F72D
:10318D007532F27533027534007582FE0219F2AF95
:10319D0082AE83ADF0FC90F7F5EFF0EEA3F0EDA36A
:1031AD00F0ECA3F07535F57536F77532F37533041C
:0931BD007534007582FE0219F25E
:0300E400750A009A
:1031C6007EF97FF78FD575D4F97E017FF88FD37599
:1031D600D20175120075131875140090F7F975F081
:1031E600000243E37403B50A047582FF22850A824E
:1031F600050A2290DF46E0FFBFF00E90DF47E0FFB2
:10320600BF0D0690DF487469F0C2AF759A0075B8B5
:103216000075A800121C9A53BE7F75D69FC29102F4
:10322600000022124402AC82AD83AEF0FFC004C09F
:1032360005C006C0079037BD75F086743D12428AF8
:10324600AC82AD83AEF0FFE58124FCF581E4C0E0FD
:10325600C0E074C0C0E07441C0E08C828D838EF003
:10326600EF124522AC82AD83AEF0FFE58124FCF57A
:10327600818C828D838EF0EF124415AC82AD83AEC5
:10328600F090DF09EEF090DF0AEDF090DF0BECF046
:103296002275E10490DF3BE0FFBF01F890FC1CE0E3
:1032A600F5E190FC1CE0FFBF04012290DF3BE0FF4C
:1032B600BF010280ED2290FC1CE0FFBF02012290BC
:1032C600DF13E053E0F0F090DF13E043E00FF090FF
:1032D600FC1C7402F002375490FC1CE0FFBF030193
:1032E6002290DF13E053E0F0F090DF13E043E00AB2
:1032F600F090FC1C7403F0F5E190DF3BE0FFBF1398
:10330600F82290FC1CE0FFBF04012290DF13E0537B
:10331600E0F0F05391EF75E10490DF3BE0FFBF0171
:10332600F8539BFC53E9EF90FC1C7404F02290FCCC
:103336001FE4F0A3F090FC12F0A3F090FC14F0A3AD
:10334600F053C6C7759D00859E9E439E0485A9A918
:1033560043B90190FC1C7404F0751200751300F556
:103366001490F81275F0001243E31218A2D2A87551
:1033760091D175E900750B00439A0175E10490DF60
:103386003BE0FFBF01F8227E007F00C3EE94DCEF36
:103396009405502390DF3CE05450600490000122D5
:1033A600900032C007C006123DD8D006D00774324E
:1033B6002EFEE43FFF80D490000022AF83E582908A
:1033C600FC3CF0EFA3F090FC3EE4F090DF02E0FF5F
:1033D60090DF3BE0FEBE131EA291B3920290FC8EDC
:1033E600E0FEA202E4335206EE24FF9291C00712D9
:1033F6002E17D00780DAC29190FC8AE4F090FC3850
:10340600E0FDA3E0FE90FC80EDF0EEA3F090FC3A28
:10341600E0FBA3E0FC90FC86EBF0ECA3F090FC361E
:10342600E0F9A3E0FA90FC82E9F0EAA3F090FC84CC
:10343600E9C39BF0EA9CA3F090FC84E0FBA3E0FCCC
:103446008D128E138B828C83C007C006C005C00206
:10345600C001124469AB82AC83D001D002D005D042
:1034660006D00790FC88EB29F0EC3AA3F0E94A7005
:1034760073C00790FC3CE0FBA3E0FC8B828C83E0EE
:10348600F8880C750D0090FC36E50CF0E50DA3F000
:1034960090DF04E0F87F00740358F50E8F0FE4B553
:1034A6000E07B50F04D0078020D0077401B50E06AD
:1034B60014B50F02800302358290FC367401250C88
:1034C600F0E4350DA3F002358290FC3C74012BF03C
:1034D600E43CA3F090FC36E0FBA3E0FC90DF02EBBB
:1034E600F002358290DF04E0FC5304037B00BC004D
:1034F60005BB00028049BC0105BB00028003023502
:103506008290FC3CE0FBA3E0FC90FC3FE9F0EAA3E0
:10351600F090FC417401F0E4A3F08B828C83C00729
:10352600C002C001123D5CD001D002D00790FC3C25
:10353600E0FBA3E0FC89008B828C83E8F0803DED04
:103546004E603490FC88E0FDA3E090DF02EDF09041
:10355600DF04E053E0FCF090FC88E0FDA3E0FEC34E
:1035660074FF9DE49E500890DF04E043E002F09073
:10357600FC8A7401F0800590DF02E9F0D2A890FC85
:103586008BE020E3030236B790DF04E0FE53060328
:103596007D00BE0109BD000690FC3E7401F090FC62
:1035A6003CE0FDA3E0FE90FC3EE0FC2DFAE43EFB91
:1035B60090FC36E0F8A3E0F990FC5DE8F0E9A3F0B2
:1035C6008A828B83C007C006C005C0041240D1AAF8
:1035D60082AB83D004D005D006D00790FC8BE0F8F0
:1035E6005300047900B8043EB9003BC007EC2DF83F
:1035F600E43EF990FC8BE054F0FF90FC61E8F0E9C2
:10360600A3F090FC63EAF0EBA3F090FC65EFF08882
:10361600828983C007C003C002124107D002D003CB
:10362600D007D0078035EC2DFDE43EFE90FC8BE004
:1036360054F0FC90FC68EDF0EEA3F090FC6AEAF022
:10364600EBA3F090FC6CECF08D828E83C007C00378
:10365600C002124150D002D003D00790FC3EE06079
:103666003390FC8BE0FE5306F07D00BE5014BD0087
:103676001190FC3CE0FDA3E0FE8D828E837410F079
:10368600802F90FC3CE0FDA3E0FE8A048D828E83B1
:10369600ECF0801D90FC8BE0FE5306F07D00BE50E2
:1036A6000BBD000890DF027410F0800590DF02EA7F
:1036B600F090FC3CE0FDA3E0FE90FC18EDF0EEA3DC
:1036C600F090FC7EE4F0A3F075E1037D607EEA9065
:1036D600DF3BE0FCBC1302802F1DBDFF011EED4E3B
:1036E6006026A291B3920290FC8EE0FCA202E43323
:1036F6005204EC24FF9291C007C006C005122E1793
:10370600D005D006D00780C790FC8EE05401FC247B
:10371600FF9291ED4E700690FC467413F090DF3BDD
:10372600E0FEBE131EA291B3920290FC8EE0FEA2B2
:1037360002E4335206EE24FF9291C007122E17D0F0
:103746000780DAC29190DF02EFF075820122D2A8DB
:1037560075120075130075140290F81275F00012B8
:1037660043E390FC12E4F0A3F090FC14F0A3F09075
:10377600FC16F090FC1704F090F811E4F0539BFC53
:1037860053E9EF75E10290DF3BE0FFBF0DF843918F
:10379600102290FC8D7401F02290FC8DE4F022C082
:1037A60021C0E0C0F0C082C083C007C006C005C00B
:1037B60004C003C002C001C000C0D075D00090FC98
:1037C600457411F0C28990DF3BE0FFBF0D02800314
:1037D6000238EE90FC8EE05401FF24FF929190FC9B
:1037E60077E0602590FC78E0FEA3E0FFEE24FFFC86
:1037F600EF34FFFD90FC78ECF0EDA3F074FF2F4062
:103806000890DF04E053E0FCF090FC1C7402F0909A
:10381600F811E07E0025E0CEE42412FFEE34F8FE37
:10382600E075F002A42412FC74FC35F0FD8C828D48
:1038360083E0FAA3E0FB74012AF8E43BF98C828D5D
:1038460083E8F0E9A3F0EA2FF582EB3EF583E5D9AC
:10385600F090F811E075F002A42412F58274FC359C
:10386600F0F583E0FEA3E0FFC39402501A90F8112E
:10387600E075F002A42412F58274FC35F0F583E0BD
:10388600FEA3E0FF4E701990F811E075F002A42433
:1038960012F58274FC35F0F58374FFF07401A3F021
:1038A60090FC78E0FEA3E0FF4E6003023A9D90FC98
:1038B60077E07003023A9D90FC7AE0FEA3E0FF9069
:1038C600FC78EEF0EFA3F090FC78E0FEA3E07F003A
:1038D60090DF02EEF090DF04E053E0FCF090DF04AE
:1038E600E043E002F0023A9D90DF3BE0FFBF1302A7
:1038F6008003023A9D90FC8AE07003023A2E90FC07
:103906002EE0FEA3E0FF0EBE00010F90FC2EEEF0AF
:10391600EFA3F090FC7EE0FEA3E0FF90FC82E0FCCB
:10392600A3E0FDEEB50406EFB505028003023A06F4
:1039360090FC80E0FEA3E04E603890FC80E0FEA3A1
:10394600E0FFBEFF05BF0002801590FC80E0FEA3ED
:10395600E0FF1EBEFF011F90FC80EEF0EFA3F0908B
:10396600FC86E0FEA3E0FF90FC7EEEF0EFA3F00203
:103976003A0690FC7CE0FF90FC82E0F512A3E0F5AD
:10398600137E008F828E83124469AE82AF8390FCD1
:1039960018E0FCA3E0FDEE2CF582EF3DF583E4F0A4
:1039A60090FC7CE02401FFF090FC7DE0FEEFB50684
:1039B6000590FC7CE4F090FC7CE0FF90FC82E0F556
:1039C60012A3E0F5137E008F828E83124469AE82C5
:1039D600AF8390FC18E0FCA3E0FDEE2CFEEF3DFF6C
:1039E6008E828F83E0701090FC21E4F090FC467488
:1039F60012F0123297C29190FC7E7401F0E4A3F0AB
:103A060090FC88E0FEA3E0FFEE24FFFCEF34FFFD10
:103A160090FC88ECF0EDA3F0BEFF22BF001F90DF04
:103A260004E053E0FCF0801590FC88E0FEA3E0FF84
:103A36001EBEFF011F90FC88EEF0EFA3F090FC1C69
:103A46007403F090FC7CE0FF90FC82E0F512A3E0AA
:103A5600F5137E008F828E83124469AE82AF839007
:103A6600FC7EE0FCA3E0FD90FC7E74012CF0E43DBE
:103A7600A3F0EC2EFEED3FFF90FC18E0FCA3E0FD6A
:103A8600EE2CF582EF3DF583E0F5D990FC1AE024A3
:103A960001F0A3E03400F0D0D0D000D001D002D0A5
:103AA60003D004D005D006D007D083D082D0F0D082
:103AB600E0D02132C021C0E0C0F0C082C083C00780
:103AC600C006C005C004C003C002C001C000C0D00B
:103AD60075D00075100090FC457410F0539BFCE502
:103AE600E9420BE5E930E01C90FC1DE0FDA3E08D0A
:103AF600067D00AB9C7C0090FC1FED4BF0EE4CA3CA
:103B0600F053E9FEE5E954707003023CC790FC1CD3
:103B1600E0FEBE0306530B8F023CC490F811E0B4DE
:103B260001009203E433FD7E002416F582EE34FC98
:103B3600F583E0FEBE01028003023C7B90FC8BE035
:103B460020E103023C5390DF04E0FE5306037D00B0
:103B5600BE0106BD000375100190FC8BE0FE530606
:103B6600017D00BE0176BD007390F811E07D002551
:103B7600E0CDE42412FEED34F8FDAB107C00EB2E14
:103B8600FEEC3DFDE0F97A0029CAE42412F9EA3494
:103B9600F8FAEB29FBEC3AFCE075F002A42412F5E6
:103BA6008274FC35F0F583E0F9A3E0FAA8107F00F3
:103BB600E9C398F9EA9FFA90FC8BE054F0FF90FC79
:103BC60061EBF0ECA3F090FC63E9F0EAA3F090FC63
:103BD60065EFF08E828D83124107807190F811E0B7
:103BE6007E0025E0CEE42412FFEE34F8FEAC107D14
:103BF60000EC2FFFED3EFEE07A0025E0CAE4241239
:103C0600FBEA34F8FAEC2BFCED3AFDE075F002A481
:103C16002412F58274FC35F0F583E0FAA3E0FBA8E4
:103C2600107900EAC398FAEB99FB90FC8BE054F00C
:103C3600F990FC68ECF0EDA3F090FC6AEAF0EBA3D7
:103C4600F090FC6CE9F08F828E8312415090F8114F
:103C5600E063E001F090F811E075F002A42412F59B
:103C66008274FC35F0F583E4F0A3F090FC16F09036
:103C7600FC17F0804790FC467412F0A291B39203B1
:103C860090FC8EE0FFA203E4335207EF24FF9291EB
:103C960090F811E075F002A42412F58274FC35F058
:103CA600F583E4F0A3F0A291B3920390FC8EE0FFBB
:103CB600A203E433FE5207EF24FF9291C29153E927
:103CC600CFE5E930E63790FC467410F0A291B39246
:103CD6000390FC8EE0FFA203E4335207EF24FF9229
:103CE60091123297A291B3920390FC8EE0FFA20349
:103CF600E433FE5207EF24FF929153E9BFE5E93022
:103D0600E73790FC467411F0A291B3920390FC8EB3
:103D1600E0FFA203E4335207EF24FF929112329799
:103D2600A291B3920390FC8EE0FFA203E433FE520D
:103D360007EF24FF929153E97FD0D0D000D001D075
:103D460002D003D004D005D006D007D083D082D0CD
:103D5600F0D0E0D02132AF83E58290FC43F0EFA3B0
:103D6600F090FC41E0FEA3E0FF90FC43E0FCA3E002
:103D7600FD90FC3FE0FAA3E0FB8A008B011ABAFF34
:103D8600011BE8496024EE2AF8EF3BF9E82CF8E934
:103D96003DF9EA2CF582EB3DF583C006C007E088C5
:0B3DA600828983F0D007D00680CF2276
:10482F000000000000000100000000000000000078
:07483F000000000000000072
:103DB100AE82AF831EBEFF011FC3E49E74808FF0ED
:103DC10063F08095F0500F7C4C7D041CBCFF011DFD
:103DD100EC4D70F780DE22AE82AF83EE2EFEEF3324
:103DE100FF1EBEFF011FC3E49E74808FF063F0804D
:103DF10095F040ED22AE82AF83D2919003E8C007E7
:103E0100C006123DB1C2919001F4123DB1D006D06D
:103E110007EE30E020900019C007C006123DB1D274
:103E210091900226123DB1C291900019123DB1D07C
:103E310006D007801E900113C007C006123DB1D203
:103E410091900032123DB1C291900113123DB1D057
:103E510006D007EFC313CE13CEFF80B5AFF0AE830C
:103E6100E58290FC4EF0EEA3F0EFA3F090FC4EE063
:103E7100FDA3E0FEA3E0FF90FC4BE0FAA3E0FBA36F
:103E8100E0FCA812A913E849604DC000C0018D8271
:103E91008E838FF01245E5F98A828B838CF012456F
:103EA100E5F8E9C398F98914D001D000600D8514B3
:103EB10015751600851582851683220DBD00010E2C
:103EC10090FC4EEDF0EEA3F0EFA3F00ABA00010B67
:103ED10018B8FF011980AF9000002253BEFBE5BE68
:103EE10030E6FB53C6B8E5C620E6FB43BE04E5BE9B
:103EF10030E6FB53C6C743E40C43E401D2B9224385
:103F0100FE03C29122C0E0C082C083C0D090FC47B2
:103F1100E02401F0A3E03400F0A3E03400F0A3E0DA
:0C3F21003400F0D0D0D083D082D0E03249
:014846000170
:103F2D001231EAAF8290FC55EFF08F068EF005F05E
:103F3D007401800225E0D5F0FB90FC56F0EF75F092
:103F4D0008A424F9FE74F735F0FF90FC51EEF0EF64
:103F5D00A3F08E828F83A3A374DFF090FC51E0FE5B
:103F6D00A3E0FF8E828F83A3A3A374B1F090FC51C5
:103F7D00E0FEA3E0FF8E828F83A3A3A3A3A37410FF
:103F8D00F090FC51E0FEA3E0FF74062EF582E43FB5
:103F9D00F583E054E0441DF090FC51E0FEA3E0FFFA
:103FAD0074072EF582E43FF583E0543F4440F090D2
:103FBD00FC51E0FEA3E0FF74072EF582E43FF5838C
:103FCD00E054FC4401F01231EAAF8290FC57EFF05F
:103FDD008F068EF005F07401800225E0D5F0FB9080
:103FED00FC58F0EF75F008A424F9FE74F735F0FFD6
:103FFD0090FC53EEF0EFA3F08E828F8374DFF09080
:10400D00FC53E0FEA3E0FF8E828F83A374B2F09089
:10401D00FC53E0FEA3E0FF8E828F83A3A3A3A3A393
:10402D007410F090FC53E0FEA3E0FF74062EF582B1
:10403D00E43FF583E054E0441EF090FC53E0FEA312
:10404D00E0FF74072EF582E43FF583E054CF441072
:10405D00F090FC53E0FEA3E0FF74072EF582E43FE1
:10406D00F583E054FC4401F043A91043B91022AF8D
:10407D0083E58290FC5BF0EFA3F0E5B330E3FB90BA
:10408D00FC51E0FEA3E0FF90FC5BE0FCA3E0FD8DA6
:10409D00038B028E828F83EAF090FC51E0FEA3E049
:1040AD00FF8E828F83A3ECF090FC56E0FF42D6008A
:1040BD0090FC5AE0FF90FC59E04F4401F5B3E5B395
:1040CD0030E3FB22AF83E58290FC5FF0EFA3F0902D
:1040DD00FC5FE0FEA3E0FF90FC5DE0FCA3E0FDECE7
:1040ED00540F6011EC2EF582ED3FF5830CBC0001F1
:1040FD000DE4F080EA8C828D8322AF83E58290FC03
:10410D0066F0EFA3F090FC66E0FEA3E0FF90FC618B
:10411D00E0FCA3E0FD90FC63E0FAA3E0FB90FC65FE
:10412D00E0F990FC6FECF0EDA3F090FC71EAF0EB90
:10413D00A3F090FC73E4F090FC74E9F08E828F8311
:10414D0002419AAF83E58290FC6DF0EFA3F090FCF5
:10415D006DE0FEA3E0FF90FC68E0FCA3E0FD90FCA9
:10416D006AE0FAA3E0FB90FC6CE0F990FC6FECF0D8
:10417D00EDA3F090FC71EAF0EBA3F090FC737402E8
:10418D00F090FC74E9F08E828F8302419AAF83E543
:10419D008290FC75F0EFA3F0E5B330E3FB90FC7576
:1041AD00E0FEA3E0FF90FC6FE0F518A3E0F5199099
:1041BD00FC74E0FB74505BF51790FC73E0F94B4415
:1041CD0001FB740149F51690FC71E0F512A3E0F5C1
:1041DD0013E4F514F515C3E5149512E51595134083
:1041ED000122C00390FC51E0F8A3E0FBE5142EF989
:1041FD00E5153FFA8A058D0488828B83ECF090FCDF
:10420D0051E0FCA3E0FD8C828D83A3E9F090FC537B
:10421D00E0FCA3E0FD8C828D83A3A3E5142518FC9F
:10422D00E5153519FD8D038B02EAF090FC53E0FA8C
:10423D00A3E0FB8A828B83A3A3A3ECF090FC56E052
:10424D00FD90FC58E0FC4D42D60000D003E5176010
:10425D0017E51224F0FCE51334FFFDECB51409ED60
:10426D00B515058516B380028BB3E5B330E3FB744A
:10427D00102514F514E43515F5150241E312432DFF
:10428D00BC00030244F4EF60FA30D502B2D1E583ED
:10429D00B4FF0302450AE582B4FF0302450A2583F4
:1042AD0040072482400B0244F4248314500302453A
:1042BD000AF582EA8DF0A4A8F0EA8EF0A428F8E4BD
:1042CD0035F0F9EB8DF0A428E935F0F9E433CA8F18
:1042DD00F0A429F9EA35F0FAEBF88EF0A429F9EA01
:1042ED0035F0FAE433FBEC8DF0A429F9EA35F0FA58
:1042FD00E43BFBE88FF0A42AFAEB35F0FBE433CC7A
:10430D00FD8EF0A42AFAEB35F0FBE43CFCED8FF0CA
:10431D00A42BFBEC35F0FC20E7031243B00244D391
:10432D00AA82AB83A2F73392D1F5826002D2F7ACA9
:10433D00F0E58124F9F8E6FD08E6FE0886F008E6CA
:0E434D00A2F73392D5F5836002D2F7AFF022CB
:0600BA00E478FFF6D8FD1A
:10435B00AD82AE83AFF08D178E188F1985121A852B
:10436B00131B85141CA815A9168803890418B8FFFC
:10437B000119EB4C6025851A82851B83851CF01275
:10438B0045E5FCA385821A85831B8D828E838FF076
:10439B00EC12444EA3AD82AE8380CE851782851876
:1043AB00838519F0227804EC7011E58224F8500A09
:1043BB00F582E4C9CACBFCD8EF22EC782005822029
:1043CB00E713D5820122C3E933F9EA33FAEB33FB66
:1043DB00EC33FCD8EA158222AC82AD83AE13AF145A
:1043EB00BE0004EF600C1F0FE51212444EA3DEFA61
:0743FB00DFF88C828D8322A4
:100098007918E94400601B7A0190482F78777593A6
:1000A800FCE493F2A308B800020593D9F4DAF275D8
:0200B80093FFB4
:10440200FCABF0AA83A982749EC2D1F5821243B09A
:104412000244D37F9E12443C30D1030244F4C3EFE2
:104422009582500974FFF5F0F583F5822279001226
:10443200460189828A838BF0EC22AA82AB83A2F79F
:104442003392D1F5826002D2F7ACF02220F711301C
:10445200F6138883A88220F509F6A88375830022C3
:1044620080FEF280F5F022E5828512F0A4C582C0BA
:10447200F08513F0A4D0F025F0C5838512F0A425B1
:1044820083F58322E512451360467A01E51225E0A1
:10449200F512E513334012F513E5829512E5839583
:1044A2001340030A80E6C3E51313F513E51213F56F
:1044B20012C3E5829512F5F0E58395134005F58365
:1044C20085F082C3E51313F513E51213F512DAE151
:0144D20022C7
:1000C0007800E84400600A79007593F0E4F309D8F9
:1000D000FC7877E8440C600C790D90F000E4F0A314
:0400E000D8FCD9FA75
:02008900E4731E
:1044D300B98003EA13B34010EA2401FAE43BFBE496
:1044E3003CFC50047C800582BC000EBB000BBA0070
:1044F30008E4F5F0F583F58222A2D1E582138CF06E
:1045030092F78B838A8222E4F583F58275F080F437
:10451300A2D11322E4F583F58275F0C0747F2212D1
:10452300432D30D502B2D1BF0009BC0003024517A9
:1045330002450ABC00030244F4E583B4FF0BE582A1
:10454300B4FF030245170244F4E582B4FF030245B6
:104553000AC395835007247F400B0244F42480143C
:10456300500302450AF582C3ED9AEE9BEF9C40117E
:104573001582C3EA33F9EB33FAEC33FBE433FC8003
:1045830005E4CCCBCAF9C08275F019C3E99DEA9E54
:10459300EB9FEC9400D5F002802D400EE99DF9EAE3
:1045A3009EFAEB9FFBEC9400FCC3B3E833F8E5827F
:1045B30033F582E58333F583C3E933F9EA33FAEB61
:1045C30033FBEC33FC80C4B3E4F938FAE43582FB03
:1045D300E43583FCD082500405827C801243B00210
:0245E30044EBA7
:0D008B0075814E124644E582600302008636
:1045E50020F71430F6148883A88220F507E6A883FF
:1045F50075830022E280F7E49322E0226040F825EB
:1046050082500274FFF582E824F8501ECCCBCAF91B
:10461500E4CC24F85014CBCAF9E4CB24F8500BCAE7
:10462500F9E4CA24F8500379002224086010F8C37D
:10463500EC13FCEB13FBEA13FAE913F9D8F1227535
:03464500820022CE
:00000001FF
