:0614000002148B024C35C2
:01140B0032AE
:0114130032A6
:01141B00329E
:011423003296
:01142B00328E
:031433000243B8B9
:01143B00327E
:011443003276
:03144B000253A3A6
:03145300021AC3B7
:03145B00021D9AD5
:011463003256
:03146B0002443CFC
:011473003246
:01147B00323E
:03148300024F4ACB
:0314E70002148666
:03148600022E0F24
:1014EA00AF83E58290F554F0EFA3F0C2A0C2A4D274
:1014FA00A375E10490DF3BE0FFBF01F890F554E0EB
:10150A00FEA3E090DF06EEF0C2A090FC8CE024FF80
:10151A0092A4E06401FF24FF92A375E10290DF3BED
:10152A00E0FFBF0DF8227E007F0090FC28E0FCA3BC
:10153A00E0FD8E028F03C3EA9CEB9D5038EE240037
:10154A00FCEF34F0FD90FC26E0F512A3E0F5138AD7
:10155A00828B83C007C006C005C004125923AA8221
:10156A00D004D005D006D0078C828D83EAF00EBE57
:10157A0000B80F80B522E58290F556F0E0FFE59CB1
:10158A00C39FF59CE59C24FAF59C439E10D2BA228F
:10159A00539EEF22AF83E58290F55AF0EFA3F090C5
:1015AA00FC21E06013905AE512456790FC21E0F5B2
:1015BA00821245A97582EF2290FC217406F090DF11
:1015CA003BE0FFBF130280F6C29190F557E0FEA3FD
:1015DA00E0FF90FC88EEF0EFA3F090FC8274F1F04B
:1015EA00E4A3F090FC187472F074F3A3F090FC80FA
:1015FA00E4F0A3F090FC33F090FC7CF090FC32F025
:10160A0090FC7E04F0E4A3F090FC7D7402F090F567
:10161A005CE4F090000012175990F55AE0FEA3E03E
:10162A00FF90F559E0FD7B007C008D017A00C3EB49
:10163A0099EC9A50548B02EA75F0F0A42EF9E43F23
:10164A00FA90F55C74F0F089828A83C007C006C0FC
:10165A0005C004C003121759AA82D003D004D005CA
:10166A00D006D007EA601B905B37C002124567D0EC
:10167A000290FC21E4F08A82C0021245A9D0028AB3
:10168A0082220BBB00A40C80A190FC8BE030E333D8
:10169A0090FC88E0FEA3E0FFEE540F602690FC88E1
:1016AA00E0FEA3E053060F7F007410C39EFEE49F82
:1016BA00FF90FC88E0FCA3E0FD90FC88EE2CF0EFA4
:1016CA003DA3F090FC88E0FEA3E0FFC374FF9EE414
:1016DA009F502690FC88E0FEA3E07F0090DF02EE98
:1016EA00F090DF04E053E0FCF090DF04E043E00216
:1016FA00F090FC8A7401F0801290FC88E0FEA3E06E
:10170A00FF90DF02EEF090FC8AE4F090FC8CE0247B
:10171A00FF92A0C2A490FC8CE0640124FF92A375FE
:10172A00E1037E607FEA90DF3BE0FDBD13028009A2
:10173A001EBEFF011FEE4F70EDD291EE4F700C905E
:10174A00FC467413F0905B4F12456775820022AF16
:10175A0083E58290F55DF0EFA3F090F55CE0FF245D
:10176A000F500A905B601245677582FF22EF703E48
:10177A0090FC32E4F090FC32E0FE90FC7DE0FDC388
:10178A00EE9D502190FC32E075F0F1A42472F582AE
:10179A0074F335F0F583E4F090FC32E0FE0E90FC31
:1017AA0032EEF080D090FC32E4F07582002290FC98
:1017BA0021E0FE601DBE061E90FC32E0601890DF3C
:1017CA003BE0FEBE1302800E90FC217407F0758286
:1017DA00ED227582ED2290FC32E075F0F1A42472BC
:1017EA00FD74F335F0FE8D828E83E0600A90FC462C
:1017FA007418F07582FE228D828E8374FFF090FC3D
:10180A0032E075F0F1A42472FD74F335F0FE0DBDDB
:10181A0000010E7C0090F55DE0FAA3E0FB8A128BD2
:10182A00138C148F037F008B158F168D828E838CF9
:10183A00F0C007C0031257F8D003D00790FC8BE022
:10184A0020E30302190390FC32E075F0F1A424723C
:10185A00FD74F335F0FE0DBD00010E90FC5DEBF05A
:10186A00EFA3F08D828E8312556EAE8290F55CEEF8
:10187A00F090FC8BE0FF5307047D00BF0441BD00DC
:10188A003E90FC32E075F0F1A42472FD74F335F059
:10189A00FF0DBD00010F8E037C0090FC8BE054F01D
:1018AA00FA90FC61EDF0EFA3F090FC63EBF0ECA38F
:1018BA00F090FC65EAF08D828F831255A4803A90ED
:1018CA00FC32E075F0F1A42472FD74F335F0FF0DDB
:1018DA00BD00010F7C0090FC8BE054F0FB90FC688B
:1018EA00EDF0EFA3F090FC6AEEF0ECA3F090FC6C44
:1018FA00EBF08D828F831255ED90FC32E075F0F19A
:10190A00A42472FE74F335F0FF90F55CE08E828FAA
:10191A0083F090FC32E0FF0F90FC32EFF090FC7DF8
:10192A00E0FEEFB5060590FC32E4F075820022AFC6
:10193A0083E58290F55FF0EFA3F090FC21E0FF6071
:10194A0014BF0102800F905B7A12456790FC21E078
:10195A00F5821245A912159A90FC2AE4F0A3F09098
:10196A00FC2AE0FEA3E0FF8E828F83121A4390DFE7
:10197A003BE0FFBF0DF890DF3AE0FF53077F7E00A0
:10198A00C3EF9460EE64809480402790FC2AE0FEC6
:10199A00A3E0FF0EBE00010F90FC2AEEF0EFA3F0C9
:1019AA00D29190000A125241C29190000A125241F9
:1019BA0080AD90FC217402F090FC47E0FCA3E0FDAE
:1019CA00A3E0A3E090FC2CECF0EDA3F090F55FE02F
:1019DA00FEA3E0FF90FC30EEF0EFA3F02290FC2192
:1019EA00E4F090FC47E0FCA3E0FDA3E0A3E090FC58
:1019FA002CECF0EDA3F02290FC217404F090FC474B
:101A0A00E0FCA3E0FDA3E0A3E090FC2CECF0EDA346
:101A1A00F02290FC217405F090FC34E4F0A3F090DD
:101A2A00FC47E0FCA3E0FDA3E0A3E090FC2CECF073
:101A3A00EDA3F0758200021580AF83E58290F5610F
:101A4A00F0EFA3F090F561E0FEA3E0FFEE2400F5CD
:101A5A0082EF34F0F583E0FF7E008F828E830214DA
:101A6A00EAAF83E58290F563F0EFA3F090F563E0C7
:101A7A00FEA3E0FF90F370EEF0EFA3F0222290FCB9
:101A8A002AE0FEA3E0FF0EBE00010F90FC2AEEF052
:101A9A00EFA3F0C3EE9470EF9403400790FC2AE49E
:101AAA00F0A3F090FC2AE0FEA3E0FFEE2400F5820A
:101ABA00EF34F0F583E0F58222C021C0E0C0F0C027
:101ACA0082C083C007C006C005C004C003C002C0EC
:101ADA0001C000C0D075D00090FC1DE02401FEA317
:101AEA00E03400FF90FC1DEEF0EFA3F090FC22E042
:101AFA00FCA3E0FDEEB5040BEFB5050790FC1DE471
:101B0A00F0A3F090FC1DE0FEA3E0FFBE0005BF00BD
:101B1A0002800BBE0105BF00028068021C8190FC96
:101B2A001DE0FEA3E08E077E00AC9C7D00EC420621
:101B3A00ED420790FC2EEEF0EFA3F090FC2AE0FEB7
:101B4A00A3E0FF0EBE00010F90FC2AEEF0EFA3F017
:101B5A0090FC28E0FCA3E0FDC3EE9CEF9D400790BB
:101B6A00FC2AE4F0A3F090DF3BE0FFBF1303021D61
:101B7A007D90FC2AE0FEA3E0FF8E828F83121A4337
:101B8A00021D7D90FC21E0FFBF05028003021D7D3E
:101B9A0090001912524190F567741CF090FC2AE0EB
:101BAA0090F568F090FC2AE0A3E090F569F090F5D2
:101BBA006A7442F090F56B744CF090F56C7441F0D5
:101BCA0090F56D7448F090F56E7442F090F56F746C
:101BDA004CF090F5707441F090F5717448F090F5FE
:101BEA00727442F090F573744CF090F5747441F08D
:101BFA0090F5757448F090F5767442F090F5777424
:101C0A004CF090F5787441F090F5797448F090F5BD
:101C1A007A7442F090F57B744CF090F57C7441F044
:101C2A0090F57D7448F090F57E7442F090F57F74DB
:101C3A004CF090F5807441F090F5817448F090F57D
:101C4A00827420F090FC36741CF0E4A3F090FC3807
:101C5A00F0A3F090FC3AF0A3F090F56812482B90AC
:101C6A00FC34E0FEA3E0FF0EBE00010F90FC34EE50
:101C7A00F0EFA3F0021D7D90FC21E0FFBF0302807C
:101C8A0065BF04028008BF05028003021D7D90FC27
:101C9A002CE0FEA3E0FF90FC47E0FAA3E0FBA3E000
:101CAA00FCA3E0FD8E008F01E4FEFFEAC398FAEB85
:101CBA0099FBEC9EFCED9FFDC374649AE49BE49C43
:101CCA00E49D5022905BA812456790FC217405F0B0
:101CDA0090FC47E0FCA3E0FDA3E0FEA3E0FF90FC3C
:101CEA002CECF0EDA3F090FC33E075F0F1A4247233
:101CFA00FE74F335F0FF8E828F83E06076900019D0
:101D0A0012524190FC33E075F0F1A42472FE74F390
:101D1A0035F0FF90DF04E05401B401009200E4338F
:101D2A002EFDE43FFC8E828F83E090FC36F0E4A324
:101D3A00F090FC38F0A3F090FC3AF0A3F08D828C7E
:101D4A008312482B90FC33E075F0F1A42472F582DB
:101D5A0074F335F0F583E4F090FC33E0FF0F90FC68
:101D6A0033EFF0BF0200400590FC33E4F0905BC60D
:101D7A00124567D0D0D000D001D002D003D004D011
:101D8A0005D006D007D083D082D0F0D0E0D021325F
:101D9A003290FC21E4F090FC32F090FC33F090FC9D
:101DAA002AF0A3F090FC267453F0E4A3F090FC28E8
:101DBA007453F0E4A3F090FC2EF0A3F090FC2CF006
:101DCA00A3F090FC227406F0E4A3F090FC24F0A3A4
:101DDA00F090FC30F0A3F090FC34F0A3F012153030
:101DEA0090FC21E4F0759DDC859E9E439E0443CBC6
:101DFA001022021D9B90223112334590FC47E4F0D9
:101E0A00A3F0A3F0A3F0121DFC90F583E4F090F583
:101E1A00847412F074F8A3F02290FC21E0FFBF0052
:101E2A000302216CBF0103022042BF0203021F48C2
:101E3A00BF030302216CBF040302216CBF05030226
:101E4A00214DBF060122BF40028006BF41028047E2
:101E5A0022C2A0C2A4D2A375E10490DF3BE0FFBF77
:101E6A0001F890DF0374E5F090DF047404F090DF6A
:101E7A00077412F090DF08E4F090DF147410F09009
:101E8A00DF17E043E0C0F090FC217441F090F58444
:101E9A007412F074F8A3F090F583E4F090FC34E047
:101EAA00FEA3E0FF90F583E0FDFB7C00C3EB9EEC14
:101EBA009F505D90DF06EDF0C2A0C2A4D2A375E1E7
:101ECA000490DF3BE0FFBF01F8C2A090FC8CE02445
:101EDA00FF92A4E06401FF24FF92A375E10290DF60
:101EEA003BE0FFBF0DF890000212524190F584E0EA
:101EFA00FEA3E0FF90F583E02EFEE43FFF90DF3A79
:101F0A00E0FD8E828F83F090F583E02401F0808CCF
:101F1A00C2A0C2A4D2A375E10490DF3BE0FFBF01D7
:101F2A00F890FC34E0FF8F3375340090F584E0F5C7
:101F3A0035A3E0F536753201758243022E41E50B71
:101F4A00700302203090FC45740DF0539AFEE50BA5
:101F5A0020E40302203090FC217403F090FC1FE07F
:101F6A00FEA3E08E82121580905BD412456790FC26
:101F7A001FE0FEA3E0FF8E828F831245C490F81102
:101F8A00E07E0025E0CEE42412FFEE34F8FE8F82D4
:101F9A008E8312456790F811E0B401009201E43390
:101FAA00FF90F583F0EF2416FDE434FCFE8D828E5B
:101FBA0083E0706F90DF04E030E0348F057E00ED3F
:101FCA002DCEE4FD2412F582EE34F8F583E0FC8C84
:101FDA0033EDF5342412FDEE34F8FE74012DF53597
:101FEA00E43EF536753201758242122E4180239005
:101FFA00DF02E0FE8E33E4F534FEEF2FCEE4241246
:10200A00FFEE34F8FE8F358E367532017582421234
:10201A002E4190F583E0FF2416F582E434FCF58323
:10202A007401F0530BEFD20110AF02C201750B001D
:10203A00A20192AF439A0122E50B700302213B9061
:10204A00FC45740DF0539AFEE50B20E40302213B94
:10205A0090F811E0B40100920190F583E433F09016
:10206A005BE912456790F583E07E0025E0CEE42423
:10207A0012FFEE34F8FE8F828E831245C490F583E8
:10208A00E07E0025E0CEE42412FFEE34F8FE8F82D3
:10209A008E8312456790F811E0B401009201E4338F
:1020AA00FF90F583F0EF2416FDE434FCFE8D828E5A
:1020BA0083E0706F90DF04E030E0348F057E00ED3E
:1020CA002DCEE4FD2412F582EE34F8F583E0FC8C83
:1020DA0033EDF5342412FDEE34F8FE74012DF53596
:1020EA00E43EF536753201758242122E4180239004
:1020FA00DF02E0FE8E33E4F534FEEF2FCEE4241245
:10210A00FFEE34F8FE8F358E367532017582421233
:10211A002E4190F583E0FF2416F582E434FCF58322
:10212A007401F0D20110AF02C201530BEFA2019267
:10213A00AFD20110AF02C201750B00A20192AF43E8
:10214A009A012290FC34E0FEA3E0FF90FC28E0FC18
:10215A00A3E0FDC3EE9CEF9D50012290FC21740484
:10216A00F022E50B70012290FC45740DF0E50B544A
:10217A003070012290F811E0B401009201E433FFBB
:10218A0090F583F0EF2416FDE434FCFE8D828E83F5
:10219A00E0600302222290DF04E030E0348F057E03
:1021AA0000ED2DCEE4FD2412F582EE34F8F583E03D
:1021BA00FC8C33EDF5342412FDEE34F8FE74012D57
:1021CA00F535E43EF536753201758242122E4180AC
:1021DA003690FC77E0600A90FC7AE0FDA3E0FE808E
:1021EA000890DF02E0FCFD7E007C00EF2FCCE424A7
:1021FA0012FFEC34F8FC8F358C367532018D338E34
:10220A0034758242122E4190F583E0FF2416F5823E
:10221A00E434FCF5837401F0D20110AF02C2015319
:10222A000BCFA20192AF2290F7C3E0FDA3E0FEA379
:10223A00E0FF90F7C8E0FCBC42028003022B9E90AC
:10224A00F7C9E0FC24BE5003022B90EC240A83F564
:10225A0082EC244683F583E4739090376E90EA9774
:10226A00B5C800385B9E3C9090EE6B92052A3DA95A
:10227A00245490909090909090FC7ECCC2E59090DF
:10228A009090909090909090909090909090909044
:10229A00909090909090909090E7212B2B23252B53
:1022AA002324242425252525262B2B2829292A2AB7
:1022BA002A2A28292B2B2B2B2B2B2B2A2B2A292971
:1022CA002B2B2B2B2B2B2B2B2B2B2B2B2B2B2B2B54
:1022DA002B2B2B2B2B2B2B2B2B2B2B2223C007C04F
:1022EA0006C00512159AD005D006D00790FC2174B5
:1022FA0040F08D828E838FF0125A82FC7B0090FC14
:10230A0034ECF0EBA3F090F7E9EDF0EEA3F0758270
:10231A0001124204022B9E90FC21E4F090F7E9EDB1
:10232A00F0EEA3F0758201124204022B9E90FC216A
:10233A00E06009905C03124567022B9E8D828E83B2
:10234A008FF0125A82FC7B0090F586ECF0EBA3F03A
:10235A008D828E83A3E0FAE4F92CFCEA3BFB90F52C
:10236A0086ECF0EBA3F08D828E83A3A3A3A3E0FAFD
:10237A008A0889098D828E83A3A3A3A3A3E0FAE422
:10238A002508F508EA3509F50990FC1AE4F0A3F0E6
:10239A0074062DF9E43EFA90FC36ECF0EBA3F090CB
:1023AA00FC38E4F0A3F090FC3AE508F0E509A3F064
:1023BA0089828A83C007C006C00512482BAC82D026
:1023CA0005D006D0078D828E838FF0EC1258EB90E1
:1023DA00F7E9EDF0EEA3F0758201124204022B9E9A
:1023EA008D828E838FF0125A8290FC7AF0E4A3F0E9
:1023FA008D828E83A3E0FB7C0090FC7AE0F9A3E057
:10240A00FA90FC7AEC29F0EB3AA3F090FC7AE0FB24
:10241A00A3E04B604590FC777401F090FC78E0FBF8
:10242A00A3E0FC4B704812476690FC7AE0FBA3E0FD
:10243A00FC90FC78EBF0ECA3F090FC78E0FBA3E0D6
:10244A0090DF02EBF090DF04E053E0FCF090DF0451
:10245A00E043E002F0124704801490FC77E4F09025
:10246A00FC78F0A3F090FC7AF0A3F012476690F79C
:10247A00C8E0FC90F7C9E0F53275357A7536FC7517
:10248A0033017534008C82122E41022B9E8D828E6E
:10249A00838FF0125A8290FC8BF090F7E9EDF0EE00
:1024AA00A3F0758201124204022B9E90F7E9748B05
:1024BA00F074FCA3F0758201124204022B9E90FC78
:1024CA008BE054F0FC90FC597406F090FC5AECF046
:1024DA008D828E838FF0C007C006C005125519D0B1
:1024EA0005D006D00790F7E9EDF0EEA3F07582105B
:1024FA00124204022B9E90FC8BE054F0FC90FC5993
:10250A007404F090FC5AECF08D828E838FF0C00731
:10251A00C006C005125519D005D006D00790F7E9B4
:10252A00EDF0EEA3F0758210124204022B9E8D820A
:10253A008E838FF0125A8290FC8CF0E053E001F007
:10254A0090F7E9EDF0EEA3F0758201124204022B36
:10255A009E90F7E9748CF074FCA3F0758201124224
:10256A0004022B9E8D828E838FF0125A82FC7B008E
:10257A008C828B83C007C006C005121A6BD005D0A7
:10258A0006D00790F7E9EDF0EEA3F075820112424A
:10259A0004022B9E90FC21E0601C8D828E838FF0BA
:1025AA0074EF1258EB90F7E9EDF0EEA3F0758201A3
:1025BA00124204022B9E8D828E838FF0125A82FC65
:1025CA007B0090F586ECF0EBA3F08D828E83A3E07E
:1025DA00FAE42CFCEA3BFB90F586ECF0EBA3F08DD9
:1025EA00828E83A3A3E0FA90FC1AE4F0A3F07403AA
:1025FA002DF8E43EF990F557ECF0EBA3F090F5597D
:10260A00EAF088828983C007C006C00512159EAC0D
:10261A0082D005D006D0078D828E838FF0EC1258B7
:10262A00EB90F7E9EDF0EEA3F07582011242040295
:10263A002B9E8D828E838FF0125A82FB7C0090F53E
:10264A0086EBF0ECA3F0EB4C600302273590FC8894
:10265A00E0F9A3E0FA49601C90DF3BE0FABA1314F0
:10266A00900028C007C006C005125241D005D00606
:10267A00D00780D990FC88E0F9A3E049606B905CB0
:10268A0028C007C006C00512456790FC88E0F9A378
:10269A00E0FA89828A831245C490F372E0F58212C5
:1026AA0045A990F463E0F5821245A9D005D006D079
:1026BA000790FC467412F08D828E838FF074EC12B0
:1026CA0058EBC291C007C006C0051246DFD005D03C
:1026DA0006D00790FC21E4F090F7E9EDF0EEA3F0C4
:1026EA00758201124204022B9EC29190FC21E4F0F1
:1026FA008D828E838FF01258EB905C3CC007C00627
:10270A00C00512456790FC1AE0F9A3E0FA89828AAB
:10271A00831245C4D005D006D00790F7E9EDF0EE54
:10272A00A3F0758201124204022B9E90FC21E0FA6A
:10273A00BA06028061905C4CC007C006C00512450B
:10274A0067D005D006D00790FC46E0FABA121B8D76
:10275A00828E838FF074EC1258EB90F7E9EDF0EE6D
:10276A00A3F0758201124204801F90FC467417F090
:10277A008D828E838FF074EF1258EB90F7E9EDF0AB
:10278A00EEA3F0758201124204C2911246DF90FC58
:10279A0021E4F0022B9E74012DF9E43EFA90F55CD7
:1027AA00EBF089828A83C007C006C005121759ACAC
:1027BA0082D005D006D0078D828E838FF0EC125816
:1027CA00EB8D828E838FF0125A82FBEC603BBBFE4C
:1027DA00028036905C55C007C006C005124567D016
:1027EA0005D006D0078D828E838FF0125A82F58229
:1027FA00C007C006C0051245A9C2911246DFD0051E
:10280A00D006D00790FC21E4F090F7E9EDF0EEA3B2
:10281A00F0758201124204022B9E8D828E838FF004
:10282A00125A82FB7C0090F586EBF0ECA3F0C3749D
:10283A00F09BE49C5019905B6012456790F7E9742D
:10284A0086F074F5A3F0758201124204022B9E9061
:10285A00FC32E075F0F1A42472F974F335F0FA89C8
:10286A00828A83E06019905C6212456790F7E97486
:10287A0086F074F5A3F0758201124204022B9E8938
:10288A00828A83EBF090FC32E075F0F1A42472FBAB
:10289A0074F335F0FC0BBB00010C7A0074012DF8BF
:1028AA00E43EF9881289138A1490F586E0F515A397
:1028BA00E0F5168B828C838AF01257F890FC32E08E
:1028CA00FC0C90FC32ECF0BC0200400590FC32E4B7
:1028DA00F090F7E97486F074F5A3F075820112425C
:1028EA0004022B9E8D828E838FF0125A82FC7B000B
:1028FA0090FC26ECF0EBA3F090FC26E0F9A3E0FABA
:10290A00C374709C74039B402E74022DFBE43EFC3E
:10291A008B128C1375140089158A1690F00075F0C5
:10292A00001257F890F7E97426F074FCA3F0758248
:10293A0002124204022B9E90F7E97483F0745CA39E
:10294A00F0758208124204022B9E90FC26E0FC904D
:10295A00F7E97400F074F0A3F08C82124204022B9F
:10296A009E121A887B008B83121A4390FC2AE0FB82
:10297A00A3E0FC90F7E9EB2400F0EC34F0A3F07547
:10298A008201124204022B9E8D828E838FF0125A8C
:10299A0082FC7B008C828B83C007C006C0051214A0
:1029AA00EAD005D006D00790F7E9EDF0EEA3F0756E
:1029BA008201124204022B9E758200C007C006C023
:1029CA0005121580D005D006D00790F7E9EDF0EE94
:1029DA00A3F0758201124204022B9EC007C006C0F2
:1029EA000512159AD005D006D00790F7E9EDF0EE5A
:1029FA00A3F0758201124204022B9E8D828E838F70
:102A0A00F0125A82FC7B0090FC22ECF0EBA3F090CF
:102A1A00F7E9EDF0EEA3F0758201124204022B9E53
:102A2A0090F7E97422F074FCA3F075820412420450
:102A3A00022B9E8D828E838FF0C007C006C00512BE
:102A4A004526D005D006D0078D828E838FF0125A84
:102A5A0082F582C007C006C0051245A9D005D00676
:102A6A00D0078D828E838FF0125A82FC7B008C12E3
:102A7A008B138B147515158B1690FC2175F000C0FD
:102A8A0007C006C0051257F8D005D006D00790F740
:102A9A00E9EDF0EEA3F0758215124204022B9E9026
:102AAA00FC1DE0FBA3E0FC90FC24EBF0ECA3F0900F
:102ABA00F7E97421F074FCA3F0758215124204023E
:102ACA002B9E8D828E838FF0125A82FC7B008C8221
:102ADA008B83C007C006C005121939D005D006D0AD
:102AEA000790F7E9EDF0EEA3F075820112420402B5
:102AFA002B9E90FC47E0F9A3E0FAA3E0A3E090FC48
:102B0A002CE9F0EAA3F08D828E838FF0125A82FCB0
:102B1A0090FC21F090FC21E0FBEC24FA4046EB2BE0
:102B2A00902B2E73800A80088006802680248011CC
:102B3A00C007C006C00512159AD005D006D0078076
:102B4A0023C007C006C005121A1CD005D006D0073C
:102B5A008012758200C007C006C005121580D00514
:102B6A00D006D00790F7E9EDF0EEA3F075820112D6
:102B7A004204802090F7E97421F074FCA3F0758276
:102B8A0001124204800E90F7E9EDF0EEA3F075828F
:102B9A0001124204900000222290F7D1E0FFBF0107
:102BAA003990F7B1E0FEA3E0FF90F7D4E0FCA3E090
:102BBA00FD90F7B4E0FAA3E0FBEA4B601D8E828F2A
:102BCA0083E0F9A3AE82AF838C828D83E9F0A3AC54
:102BDA0082AD831ABAFF011B80DF90F7BAE054FD79
:102BEA00F090DE11E043E008F022AE82AF83E0FD10
:102BFA0020E703022CED8E828F83A3E0FD601DBDCA
:102C0A000102802ABD0202803BBD0302805ABD0434
:102C1A00028076BDFE03022CAF022CED75370275D9
:102C2A00380090FC4575F0001230EC022CED90DE75
:102C3A0000E0FD7C007539288C3A8D828C83123134
:102C4A0060022CED8E828F83A3A3E0FCA3E0FD74C7
:102C5A00062EF582E43FF583E0F539A3E0F53A8CD8
:102C6A00828D83123160807B8E048F057B0074060F
:102C7A002EF582E43FF583E0F537A3E0F5388C8240
:102C8A008D838BF01230EC805A90F7B1E0FBA3E011
:102C9A00FCA3E0FD753910753A008B828C838DF0A8
:102CAA00123160803E74022EFEE43FFF7D00754BB8
:102CBA008B754C5C754D807512048D138E828F83D3
:102CCA008DF01252EDE5828583F045F06012D291C3
:102CDA0090012C125241C29190012C125241800350
:102CEA0075C9839000002290DF2FE4F090DF30F066
:102CFA0090DF31F090DF00740CF090DF01744EF039
:102D0A0090DF0274FFF090DF037440F090DF04E478
:102D1A00F090DF05F090DF06F090DF077406F09080
:102D2A00DF08E4F090DF097424F090DF0A743AF0C7
:102D3A0090DF0B74F1F090DF0C74CAF090DF0D7421
:102D4A00A3F090DF0E7401F090DF0F7423F090DF90
:102D5A00107411F090DF117436F090DF127407F0DE
:102D6A0090DF13740FF090DF147418F090DF1514CD
:102D7A00F090DF16746CF090DF177403F090DF1890
:102D8A007440F090DF197491F090DF1A7456F09045
:102D9A00DF1B7410F090DF1C74E9F090DF1D742AB9
:102DAA00F090DF1EE4F090DF1F741FF090DF2374B1
:102DBA0088F090DF247431F090DF257409F090DFF9
:102DCA002E74C0F090DF07C4F090DF097425F090EC
:102DDA00DF0A7495F090DF0B7455F090DF1A74B621
:102DEA00F090DF1B7410F090DF1C74EAF090DF1D86
:102DFA00742AF090DF1EE4F090DF1F741FF0221295
:102E0A00536C025390122E0912460E1253CA1230F4
:102E1A00B6124798121DFF1230E6D2AF122F93D284
:102E2A0091900002125241C29190000A125241122C
:072E3A004235121E2380F84F
:105AE50043616E6E6F742063616C6C207472616EBD
:105AF500736D69745F6C6F6E67207768696C65207C
:105B05004648535320486F7070696E67206F722046
:105B1500616C72656164792070726F636573736916
:105B25006E67207472616E736D69745F6C6F6E67FA
:105B350021004D41435F7478282920726574757280
:105B45006E6564206572726F72006E65766572208F
:105B5500656E7465726564205458004648535378E1
:105B65006D6974206D65737361676520746F6F204F
:105B75006C6F6E67004648535320737461746520DB
:105B8500656E746572696E672053594E4348494E78
:105B9500472066726F6D2077726F6E672073746130
:105BA50074650053594E43485F4D41535445522047
:105BB5002D3E2053594E43494E474D41535445526E
:105BC5000046485353786D697420646F6E65006EA6
:105BD5006574776F726B207061636B657428737978
:105BE5006E6329006E6574776F726B207061636BED
:105BF500657428646973636F7665727929006372C9
:105C050061702C20706C6561736520757365204625
:105C1500485353786D6974282920696E73746561DA
:105C250064210064726F706F75742066696E616CB3
:105C350020776169742100746F74616C20627974D6
:105C450065732074783A00756E64657272756E00BE
:105C5500627566666572206572726F72007374692B
:105C65006C6C2077616974696E67206F6E2074684B
:105C750065206C617374207061636B6574004E4FB1
:0B5C8500204445414C005253544E0097
:102E4100AF827E017D0090DE0E7405F090FC45742A
:102E510012F0EE7006ED7003022F897B107C279033
:102E6100DE11E030E00D90FC467401F01BBBFF0168
:102E71001C80ECEB4C7014D2919003E8125241C2C9
:102E8100919003E812524190FFFF22BE012E7E0075
:102E910090DE2A7440F0EFF0E532F0E533F0E534EE
:102EA100F0C3E533943BE534940040087B3B7C0060
:102EB1007D018021AB33AC347D008019C3E53394AF
:102EC10040E534940040087B407C007D018006ABE6
:102ED10033AC347D00AA2974802A42D685268285A6
:102EE1002783AA368A01E9F0852682852783A3E50F
:102EF10035F0852682852783A3A374DEF08526829B
:102F0100852783A3A3A3742AF0852682852783A31B
:102F1100A3A3A3A3EBF0852682852783A3A3A3A361
:102F2100E054E0F0852682852783A3A3A3A3A3A36E
:102F3100A3E0543F4440F0852682852783A3A3A3C1
:102F4100A3A3A3A3E054CFF0E52942D6E52942D7B4
:102F5100E52955D160FAE529F4FA52D190DE0E74D3
:102F610005F090DE11E043E001F0E533C39BF5335A
:102F7100E5349CF534EB2535F535EC3536F53690F1
:102F8100FC457413F0022E5390FC457414F090002C
:102F91000022E522700512423580F72253BE7F00E0
:102FA10043BE8090DE0B74F7F090DE0774FFF09063
:102FB100DE09F0438C10538CFED2BD439A02758911
:102FC10000C2C5758B00C2E843A90243B902852638
:102FD10082852783A3A3A3A3E054E0F085268285FD
:102FE1002783A3A3A3A3A3A3E0549F4420F0852692
:102FF10082852783A3A3A3A3A3A3A3E04408F08509
:103001002682852783A3A3A3A3A3A3A3E054FC44FF
:1030110001F090DE01E053E0FEF0E4F525F523F543
:1030210024F52290DE0EF090DE107404F090DE1391
:10303100F090F7BBE4F090F7BAF090F7AFF0A3F09F
:1030410090F7B17488F074F5A3F0E4A3F090F7B4AD
:10305100F0A3F090F7B6F090F7B7F090F7B8F0A3BF
:10306100F090DE0E7405F090DE107408F090DE131F
:10307100F090DE12E043E001F090DE15E043E00164
:10308100F090F7CDE4F090F7CCF090F7C1F0A3F019
:1030910090F7C374A8F074F5A3F0E4A3F090F7C619
:1030A100F0A3F090F7C8F090F7C9F090F7CAF0A339
:1030B100F0439A0222124632858228AF288FF0050A
:1030C100F07401800225E0D5F0FBF529E52875F0C3
:1030D10008A424F9F52674F735F0F52790FC45741A
:1030E10002F0022F9DD29022C29022AFF0AE83E572
:1030F1008290F7D6F0EEA3F0EFA3F090F7BBE0607B
:1031010034D2919003E8125241C2919003E81252D5
:1031110041D2919003E8125241C2919003E81252B8
:1031210041D2919003E8125241C2919003E81252A8
:103131004190FFFF2290F7D6E0FDA3E0FEA3E0FF60
:1031410090F7ACEDF0EEA3F0EFA3F090F7AFE53719
:10315100F0E538A3F090F7BB7401F090000022AFC6
:1031610083E58290F7D9F0EFA3F090F7BBE06034EC
:10317100D2919003E8125241C2919003E812524158
:10318100D2919003E8125241C2919003E812524148
:10319100D2919003E8125241C2919003E812524138
:1031A10090FFFF2290F7D9E0FEA3E0FF7D0090F7AA
:1031B100ACEEF0EFA3F0EDA3F090F7AFE539F0E559
:1031C1003AA3F090F7BB7401F0900000227F007EDB
:1031D1000290DE0EE4F090F7AFE0FCA3E0FDC3EC5B
:1031E1009420ED940040047B2080068C037F017EB7
:1031F1000A8B017A00ECC399FCED9AFD90F7AFECD4
:10320100F0EDA3F08B05ED603690F7ACE0FAA3E0AA
:10321100FBA3E0FC8A828B838CF0125A8290DE2021
:10322100F090F7ACE0FAA3E0FBA3E0FC0ABA0001DE
:103231000B90F7ACEAF0EBA3F0ECA3F01D80C79084
:10324100DE11E04EF0EF600590F7BBE4F02290F75D
:10325100BB7402F07582002290F7B1E0FDA3E0FE9D
:10326100A3E0FF90DE11E060FA90DE0EE4F090DE64
:1032710016E0FC7B0090F7B4ECF0EBA3F090F7BA0A
:10328100E030E11290F7BB7403F090DE11E043E00F
:1032910004F090FFFF2290F7BAE04402F090F7B4F7
:1032A100E0FBA3E0FCC374209BE49C501CD29190F2
:1032B100012CC007C006C005125241C29190012CD9
:1032C100125241D005D006D00790F7B4E0FBA3E03D
:1032D100FC8D07EB4C601690DE20E0FD8F828E8323
:1032E100F0A3AF82AE831BBBFF011C80E6E52C453A
:1032F1002D6009852C82852D8312148990F7B4E005
:10330100FEA3E0FFC3EE9420EF9400501CE52A4594
:103311002B6009852A82852B8312148990DE11E0A6
:1033210043E008F090F7BBE4F090DE11E043E040A9
:10333100F090F7B4E0FEA3E08E82F5832285822E21
:1033410085832F2285823085833122753701753837
:103351000090002575F0400230ECAFF0AE83E582BD
:1033610090F7DBF0EEA3F0EFA3F090F7DBE0FDA325
:10337100E0FEA3E0FF74022DFDE43EFE8D828E830C
:103381008FF0125A82FD8D2575220122AF827D5B5D
:103391007E44BF030874EEB512037512048D828E4C
:1033A10083A3E090F7DEF0AC1290F7DEE0FBBBFF09
:1033B10002803EEBB50723EC700890F7DE74FFF056
:1033C10080E71C8D828E83E02DFDE43EFE8D828E92
:1033D10083A3E0FB90F7DEF080CF8D828E83E02D1A
:1033E100FDE43EFE8D828E83A3E0FB90F7DEF0804C
:1033F100B88D828E8322AFF0AE83E58290F7DFF045
:10340100EEA3F0EFA3F090F7DFE0FDA3E0FEA3E071
:10341100FF74022DFDE43EFE8D828E838FF0125AE1
:1034210082FBA3125A82FCF97A00B90205BA0002A2
:10343100801BB90757BA005474AF5BF97A008D82CB
:103441008E838FF0E91258EBA3EA1258EB90F7DF65
:10345100E0FDA3E0FEA3E0FF74022DFDE43EFE8D3E
:10346100828E838FF0125A82FDA3125A82F5828DC9
:103471001212338DAE82AF8390F7E2EEF0EFA3F03C
:103481008E828F83A3A3E0FE7F00801C8C828B122F
:1034910012338DAC82AD8390F7E2ECF0EDA3F08CAA
:1034A100828D83E0FCFE7F0090F7DFE0FCA3E0FB70
:1034B100A3E0FD74062CFCE43BFB8C828B838DF036
:1034C100125A82FCA3125A82FDC3EC9EED9F500456
:1034D1008C068D07EE4F700890DE11E043E020F07E
:1034E10090F7E2E0FCA3E0FD8E398F3A8C828D8368
:1034F10002316090DE0EE4F090DE11E0FF30E40D69
:1035010090F7BBE4F090DE11E043E080F0EF30E2B1
:103511002490DE11E4F090FC467404F090F7BBE4D3
:10352100F0D291900014C007125241C29190001440
:10353100125241D00790F7BBE0FEBE0319D2919021
:103541000032C007125241C291900032125241D052
:103551000790F7BBE4F090F7BBE06003023848EF57
:1035610020E00302384890DE0EE4F090DE16E0FF22
:103571007C3B7D007E40EF601690DE20E0FB8C827C
:103581008D838EF01258EBA3AC82AD831F80E7E5EB
:103591003BFF20E7030237118F055305607E00BD15
:1035A1000005BE0002801EBD2006BE00030236CD0E
:1035B100BD4006BE00030236D8BD6006BE00030250
:1035C10036FD023832741F5FFE7041AD3CBD000212
:1035D100801CBD06028005BD0826800C90003B754D
:1035E100F0401233F702383212334C023832753759
:1035F10002753800905CAC75F0801230EC02383204
:1036010090003B75F04012445A023832BE0144AD7D
:103611003CBD00028005BD0A26801275370275384F
:1036210000905CAC75F0801230EC023832753701D5
:10363100753800905CAF75F0801230EC0238329032
:10364100DE11E043E020F090003B75F04012445A57
:10365100023832BE0235AD3CBD00028008BD120306
:103661000238328012753702753800905CAC75F003
:10367100801230EC02383290DE11E043E020F0900D
:10368100003B75F04012445A023832BE032AE4B5B9
:103691003C12753702753800905CAC75F0801230C1
:1036A100EC02383290DE11E043E020F090003B75EF
:1036B100F04012445A02383290003B75F0401244F7
:1036C1005A90DE11E043E020F002383290DE11E042
:1036D10043E020F0023832E52E452F60131236E325
:1036E100800BC02EC02F90003B75F0402202383273
:1036F10090003B75F04012385F02383290DE11E0E5
:1037010043E020F090003B75F04012445A023832F9
:103711008F055305607E00BD0005BE0002801EBD01
:103721002006BE00030237EBBD4006BE0003023790
:10373100FEBD6006BE000302382102383253071F66
:10374100EF7047AE3CBE0103023832BE03030238BC
:1037510032BE0502800BBE0703023832BE09178054
:103761000990DE00E53DF002383290003B75F040F3
:1037710012335B02383290003B75F04012445A908C
:10378100DE11E043E020F0023832BF0128AE3CBE3A
:103791000103023832BE0303023832BE110302387C
:1037A1003290003B75F04012445A90DE11E043E044
:1037B10020F0023832BF021FAF3CBF01028072BF4E
:1037C1000302806D90003B75F04012445A90DE1167
:1037D100E043E020F0805A90DE11E043E020F090D9
:1037E100003B75F04012445A804790003B75F04011
:1037F10012445A90DE11E043E020F08034E52E457A
:103801002F60121238098029C02EC02F90003B75FD
:10381100F04022801C90003B75F04012385F80110F
:1038210090DE11E043E020F090003B75F04012443F
:103831005A90DE11E043E040F0E5414542700890C6
:10384100DE11E043E008F090F7BBE0FFBF01031297
:1038510031CE90F7BBE0FFBF020302325922AFF035
:10386100AE83E58290F7E4F0EEA3F0EFA3F090F7DA
:10387100E4E0FDA3E0FEA3E0FF8D828E838FF012D2
:103881005A82FC20E703023A5B74012DFAE43EFB05
:103891008F048A828B838CF0125A82FC6025BC01D2
:1038A100028032BC02028043BC0303023928BC04FB
:1038B1000302395DBCFD0302397ABCFE03023A15ED
:1038C100023AC175370275380090FC4575F0001257
:1038D10030EC023AC190DE00E0FC7B007539288BA8
:1038E1003A8C828B83123160023AC174022DFAE460
:1038F1003EFB8F048A828B838CF0125A82FAA312C8
:103901005A82FB74062DF8E43EF98F04888289837C
:103911008CF0125A82F539A3125A82F53A8A828BB7
:1039210083123160023AC18D028E038F048A438B68
:10393100448C4574062DF8E43EF98F04888289830E
:103941008CF0125A82F537A3125A82F538854382D8
:103951008544838545F01230EC023AC190F7B1E01D
:10396100FAA3E0FBA3E0FC753910753A008A828B5B
:10397100838CF0123160023AC174042DFAE43EFBEB
:103981008F048A828B838CF0125A82FAA3125A8294
:10399100FBBA0446BB004374FE4444603D74062DEB
:1039A100FBE43EFA8F048B828A838CF0125A82FBED
:1039B100A3125A82FC9044FEE493F97A00C3E99B76
:1039C100EA9C500C89398A3A9044FE123160800A8F
:1039D1008B398C3A9044FE12316090F7E4E0FAA3FF
:1039E100E0FBA3E0FC74042AFAE43BFB8A828B83AC
:1039F1008CF0125A82FAA3125A82FBBA0505BB0057
:103A0100028003023AC1E4F539F53A90000012311F
:103A110060023AC174022DFAE43EFB8F0490FC4B24
:103A210074B1F0745CA3F07480A3F0751204751383
:103A3100008A828B838CF01252EDE5828583F045FA
:103A4100F06012D29190012C125241C29190012C3E
:103A5100125241806B75C983806690F7D1E0FCBC3E
:103A6100015674022DFDE43EFE8D828E838FF0128D
:103A71005A82FDA3125A82FE90DE0EE4F090DE1609
:103A8100E0FF7C007511088F828C83C007C006C0DF
:103A910005C004125286D004D005D006D007EF4CE1
:103AA100601690DE20E0FB8D828E83F0A3AD82AEA6
:103AB100831FBFFF011C80E690F7BAE054FDFFF0C1
:103AC1009000002290F7CCE030E10A90FC467405AA
:103AD100F090FFFF2290DE0E7405F090DE16E0FFFD
:103AE1007E0090DE17E0FCE42FF546EC3EF54790B2
:103AF100F7CAE0FCA3E0FD4C705890F7C6E4F0A3D0
:103B0100F090DE2AE090F7C8F090DE2AE090F7C945
:103B1100F090DE2AE0FD7C0090F7CAEDF0ECA3F016
:103B210090DE2AE0FAE4FB2DFDEA3CFC90F7CAEDB9
:103B3100F0ECA3F0E54624FCF546E54734FFF547F4
:103B4100C374049D74029C500990F7CA7404F00375
:103B5100A3F0E52955D16012D2919000141252417F
:103B6100C29190001412524180E890F7C3E0FBA388
:103B7100E0FCA3E090F7C6E0FAA3E0FFEA2BFBEF3D
:103B81003CFCAF2974802F42D68526828527837419
:103B9100DEF0852682852783A3742AF08526828517
:103BA1002783A3A38C078F06EEF0852682852783C2
:103BB100A3A3A3EBF0852682852783A3A3A3A3A3B5
:103BC100A3A3E0543FF0852682852783A3A3A3A363
:103BD100A3A3A3E054CF4410F074052526FEE435D9
:103BE10027FF90DE16E0FD8E828F83EDF0740425B1
:103BF10026FEE43527FF90DE17E08E828F83541F67
:103C0100F5F0E054E045F0F090F7C6E0FEA3E0FFE8
:103C1100EE2546FEEF3547FFC374049E74029F50A4
:103C21001390F7C6E0FFA3E0FE7404C39FF546744A
:103C3100029EF547C374409546E49547502790FC92
:103C4100467406F090DE14E053E0FEF07511049026
:103C510000051252867511108546828547831252DE
:103C61008690FFFE22E52942D6E52942D790F7C684
:103C7100E0FEA3E0FFE5462EFEE5473FFF90F7C6D5
:103C8100EEF0EFA3F0E52955D160FAE529F452D120
:103C910090F7C6E0FEA3E0FF90F7CAE0FCA3E0FDC9
:103CA100C3EE9CEF9D402B90F7CCE04402F090F7DF
:103CB100CAE4F0A3F090DE0E7405F0AE2374BF5594
:103CC10024FF8E238F2490DE14E053E0FEF0900059
:103CD100012290DE0E7405F0AE2374BF5524FF8ED1
:103CE100238F2490DE14E053E0FEF0900000229038
:103CF100F7CCE020E1012290F7C3E0FDA3E0FEA3B1
:103D0100E0FF90F7E7EDF0EEA3F090F7C8E0F54D96
:103D110074FFB54D0280030241DC90F7C9E0FBBBA3
:103D2100800050030241BEEB246C50030241BEEB04
:103D31002480FA240A83F582EA241883F583E47344
:103D410069FA72AF9FC6E7FE3720BEBEBEBE9FD2E4
:103D5100324CBE713D3D3F3F3E3F3F3F40404141C0
:103D610041414040414141418D828E838FF0125A41
:103D710082FA74012DF548E43EF5498A4B754C00F1
:103D810090F7CAE54BF0E54CA3F08548828549835D
:103D9100E0F54A74012548F54DE43549F54EA94A47
:103DA1008902E4F9254BF54BEA354CF54C90F7CAFD
:103DB100E54BF0E54CA3F0854D82854E83E0F88517
:103DC1004882854983A3A3884D894EE0FAE4254DB5
:103DD100F9EA354EFA89358A3690F7C8E0FA90F754
:103DE100C9E0F532854B33854C348A82122E4190DD
:103DF100F7CAE4F0A3F00241D48D828E838FF012D2
:103E01005A82FA8D828E83A38A4B754C00E0F87436
:103E1100022DF54DE43EF54E8802E4254BF8EA35D6
:103E21004CFA90F7CEE8F0EAA3F090F7C6E0F9A3D8
:103E3100E0FAE924FEF54BEA34FFF54CE54B454C3D
:103E4100603D90F7CEE0F548A3E0F54974012548BF
:103E5100F9E43549FA90F7CEE9F0EAA3F0854D820D
:103E6100854E83E0FAA385824D85834E8548828500
:103E71004983EAF0154B74FFB54B02154C80BD9098
:103E8100F7C8E0FA90F7C9E0F5327535CA7536F72B
:103E91007533027534008A82122E410241D490F7A3
:103EA100CCE020E2338D828E838FF0125A82FA8D1C
:103EB100828E83A38A4D754E00E0F890F7E7740275
:103EC1002DF0E43EA3F08802E4254DF8EA354EFAE0
:103ED10090F7CEE8F0EAA3F090F7CAE0F9A3E0FA90
:103EE100894D8A4EC37440954DE4954E5006754DEB
:103EF10040754E00E9C3954DF9EA954EFA90F7CA1F
:103F0100E9F0EAA3F090F7E7E0F54BA3E0F54CE523
:103F11004D454E603D90F7CEE0F548A3E0F549747C
:103F2100012548F9E43549FA90F7CEE9F0EAA3F022
:103F3100854B82854C83E0FAA385824B85834C8532
:103F41004882854983EAF0154D74FFB54D02154E3F
:103F510080BD90F7C8E0FA90F7C9E0F5327535CA2F
:103F61007536F77533027534008A82122E4102418B
:103F7100D4D291900002C007C006C005125241C2BE
:103F810091900002125241D005D006D00790F7C897
:103F9100E0FA90F7C9E0F53290F7C6E0F533A3E017
:103FA100F5348D358E368A82122E410241D4753513
:103FB100B675365C8B3275330D753400854D8212C2
:103FC1002E410241D490FC47E0F8A3E0F9A3E0A31D
:103FD100E0883589368B32753304753400854D821E
:103FE100122E410241D475359975365C8B32753389
:103FF10013753400854D82122E410241D490F7C6CB
:10400100E0F533A3E0F5348B328D358E36854D8264
:10401100122E419000C81252411246410241D475FC
:10402100359075365C8B32753309753400854D8258
:10403100122E410241D48D828E838FF0125A82FC5E
:1040410074012DF9E43EFABC0202800ABC0302802D
:1040510021BC0429800DC002C001124704D001D047
:1040610002801AC291C002C001124766D001D0027B
:10407100800BC002C001124726D001D00290F7C8C0
:10408100E0FC90F7C9E0F53290F7C6E0F533A3E024
:10409100F53489358A368C82122E410241D490F74B
:1040A100CA7401F0E4A3F07535367536DF90F7C8B0
:1040B100E0FC90F7C9E0F53290F7CAE0F533A3E0F0
:1040C100F5348C82122E4190F7CAE4F0A3F002413C
:1040D100D48D028E048C017C0090FC4B74C4F0746E
:1040E1005CA3F07480A3F07512098C138A82898312
:1040F1008CF0C007C006C0051252EDE5828583F041
:10410100D005D006D00745F060030241D475C980BF
:1041110090F7C8E0FC90F7C9E0F53290F7C6E0F5FA
:1041210033A3E0F5348D358E368C82122E41024157
:10413100D490FC45E4F090FC46F090F7E9EDF0EE08
:10414100A3F07582021242040241D490F7CAE4F04E
:10415100A3F090F7C8E0FC90F7C9E0F53275331091
:104161007534007535F07536138C82122E418063DB
:104171008D828E838FF0125A82FC74012DF9E43EF8
:10418100FABC0002800BBC010F90FC8E7401F08020
:104191000C90FC8EE4F0800590FC8EE4F090F7C862
:1041A100E0FC90F7C9E0F53290F7C6E0F533A3E003
:1041B100F53489358A368C82122E41801690F7C6E5
:1041C100E0F533A3E0F5348B328D358E36854D82A3
:1041D100122E4190F7CCE054FDF022E530453160DC
:1041E10019853082853183121489AE82AF83EE4FF7
:1041F100701090F7CCE054FDF02290F7CCE054FD24
:10420100FFF022E58290F7EBF090F7CCE054FDF05F
:1042110090F7C8E0FF90F7C9E0F53290F7EBE0FEC8
:104221008E3375340090F7E9E0F535A3E0F5368F6C
:1042310082022E41E52330E01175220274FE5523DE
:10424100FEAF248E238F2443BE01E5235406602D47
:1042510090FC45740AF075220374FD5523FEAF24CA
:104261008E238F2490DE01E043E004F090000812D9
:10427100524190DE01E053E0FBF075220190DE0E29
:10428100E4F090DE11E030E21990DE11E053E0DB62
:10429100F090F7AFE4F0A3F090F7B4F0A3F090F74B
:1042A100BBF090DE0E7405F090DE11E030E51F905A
:1042B100DE11E053E0CFF090FC467408F090F7C1B6
:1042C100E4F0A3F090F7C6F0A3F090F7CDF090DE04
:1042D10014E030E61F90DE14E053E09FF090FC46BE
:1042E1007408F090F7C1E4F0A3F090F7C6F0A3F0E2
:1042F10090F7CDF0E52320E2057404B52214122FC6
:104301009D90FC45740BF074FB5523FEAF248E2366
:104311008F24E52330E4111234F474E75523FE743D
:104321000F5524FF8E238F24E52430E65490FC455D
:10433100740CF0123AC5AE82AF83BEFE41BFFF3EA0
:1043410090F7EC7406F0E4A3F090F7C8E0FF90F763
:10435100C9E0F5327535EC7536F775330275340001
:104361008F82122E4190F7C8E0FF7535EC7536F754
:104371007532017533027534008F82122E41123C61
:10438100F0E52354E07006E52454BD602990FC4615
:104391007409F075110890004412528685238285B4
:1043A100248375111012528674E05523FE74BD5595
:1043B10024FF8E238F2422C0E0C082C083C007C0A7
:1043C10006C005C004C0D075D000E5BE30E6FB9044
:1043D100DE06E0FF7E00E5234207E52442068F2347
:1043E1008E2490DE02E0FDE4CDC4CD6DCD54F0CD40
:1043F1006DFCED4207EC42068F238E2490DE04E033
:104401007C0025E0CCE44207EC42068F23EEF52444
:1044110030E11290F7CCE054FEF0AE2374FD552448
:10442100FF8E238F24758B00C2E8D0D0D004D00535
:10443100D006D007D083D082D0E032C0E0E5BE30D4
:10444100E6FBC2AFE58930E70375220353BEFC7575
:0A4451008900C2C5D2AFD0E03222CC
:105C900053444343763432300059415244535449BB
:105CA000434B4F4E45207235353335000000000020
:105CB000005253544E00554E494D504C454D454EA3
:0E5CC0005445440052455345545F4E4F570023
:10445B001201000200000020501D5B6001010102EF
:10446B0003010A06000200000020010009022000DF
:10447B0001010080FA0904000002FFFFFF0007059D
:10448B0085024000010705050240000104030904F1
:10449B002803470072006500610074002000530080
:1044AB0063006F007400740020004700610064001B
:1044BB0067006500740073001E0359004100520031
:1044CB004400200053007400690063006B0020005F
:1044DB004F006E0065000A033000300030003000E2
:1044EB0012034D00530046005400310030003000E1
:1044FB00FD00FF2800000000010400010000000087
:10450B00000000000157494E5553420000000000C7
:10451B000000000000000000000000AF83E5829067
:10452B00F7EEF0EFA3F090F7EEE0FEA3E0FF7C00D8
:10453B007D008E028F038A828B83E0F9A3AA82AB64
:10454B0083E960070CBC00EE0D80EB7532F08C3309
:10455B008D348E358F367582FE022E41AF83E58208
:10456B0090F7F0F0EFA3F090F7F0E0FEA3E0FF7C04
:10457B00007D008E028F038A828B83E493F9A3AABA
:10458B0082AB83E960070CBC00ED0D80EA8E358FA2
:10459B00367532F08C338D347582FE022E41E582F6
:1045AB0090F7F2F07535F27536F77532F175330118
:1045BB007534007582FE022E41AF83E58290F7F3CE
:1045CB00F0EFA3F07535F37536F77532F2753302EC
:1045DB007534007582FE022E41AF82AE83ADF0FCC6
:1045EB0090F7F5EFF0EEA3F0EDA3F0ECA3F075353B
:1045FB00F57536F77532F37533047534007582FE35
:03460B00022E413B
:0314E400750A0086
:10460E007EF97FF78FD575D4F97E017FF88FD3753C
:10461E00D20175120075131875140090F7F975F024
:10462E00000258807403B50A047582FF22850A823F
:10463E00050A2290DF46E0FFBFF00E90DF47E0FF55
:10464E00BF0D0690DF487469F0C2AF759A0075B859
:10465E000075A8001230E953BE7F75D69FC2910235
:10466E0000002212589FAC82AD83AEF0FFC004C092
:10467E0005C006C0079037BD75F086743D125727EA
:10468E00AC82AD83AEF0FFE58124FCF581E4C0E0A1
:10469E00C0E074C0C0E07441C0E08C828D838EF0A7
:1046AE00EF1259BFAC82AD83AEF0FFE58124FCF56D
:1046BE00818C828D838EF0EF1258B2AC82AD83AEB8
:1046CE00F090DF09EEF090DF0AEDF090DF0BECF0EA
:1046DE002275E10490DF3BE0FFBF01F890FC1CE087
:1046EE00F5E190FC1CE0FFBF04012290DF3BE0FFF0
:1046FE00BF010280ED2290FC1CE0FFBF0201229060
:10470E00DF13E053E0F0F090DF13E043E00FF090A2
:10471E00FC1C7402F0024BD290FC1CE0FFBF0301A4
:10472E002290DF13E053E0F0F090DF13E043E00A55
:10473E00F090FC1C7403F090FC8CE024FF92A0C25D
:10474E00A490FC8CE06401FF24FF92A375E103901A
:10475E00DF3BE0FFBF13F82290FC1CE0FFBF04011B
:10476E002290DF13E053E0F0F05391EFC2A0C2A409
:10477E00D2A375E10490DF3BE0FFBF01F8539BFC31
:10478E0053E9EF90FC1C7404F02290FC1FE4F0A39C
:10479E00F090FC12F0A3F090FC14F0A3F053C6C7F7
:1047AE00759D00859E9E439E0485A9A943B90190DF
:1047BE00FC1C7404F0751200751300F51490F812B9
:1047CE0075F000125880122CF1D2A87591D175E9AE
:1047DE0000750B00439A01C2A0C2A4D2A375E104D6
:1047EE0090DF3BE0FFBF01F8227E007F00C3EE9416
:1047FE00DCEF9405502390DF3CE0545060049000B1
:10480E000122900032C007C006125268D006D007AF
:10481E0074322EFEE43FFF80D490000022AF83E579
:10482E008290FC3CF0EFA3F090FC3EE4F090DF02AF
:10483E00E0FF90DF3BE0FEBE131EA291B39202900A
:10484E00FC8EE0FEA202E4335206EE24FF9291C0EB
:10485E0007124235D00780DAC29190FC8AE4F090BC
:10486E00FC38E0FDA3E0FE90FC80EDF0EEA3F090AE
:10487E00FC3AE0FBA3E0FC90FC86EBF0ECA3F0909E
:10488E00FC36E0F9A3E0FA90FC82E9F0EAA3F0909E
:10489E00FC84E9C39BF0EA9CA3F090FC84E0FBA3AC
:1048AE00E0FC8D128E138B828C83C007C006C00570
:1048BE00C002C001125906AB82AC83D001D002D027
:1048CE0005D006D00790FC88EB29F0EC3AA3F0E96E
:1048DE004A7073C00790FC3CE0FBA3E0FC8B828C1B
:1048EE0083E0F8880C750D0090FC36E50CF0E50DB4
:1048FE00A3F090DF04E0F87F00740358F50E8F0FDD
:10490E00E4B50E07B50F04D0078020D0077401B5AB
:10491E000E0614B50F0280030249EC90FC367401AA
:10492E00250CF0E4350DA3F00249EC90FC3C74012B
:10493E002BF0E43CA3F090FC36E0FBA3E0FC90DF10
:10494E0002EBF00249EC90DF04E0FC5304037B0021
:10495E00BC0005BB00028049BC0105BB0002800300
:10496E000249EC90FC3CE0FBA3E0FC90FC3FE9F03C
:10497E00EAA3F090FC417401F0E4A3F08B828C83E7
:10498E00C007C002C0011251ECD001D002D0079076
:10499E00FC3CE0FBA3E0FC89008B828C83E8F0807A
:1049AE003DED4E603490FC88E0FDA3E090DF02ED1B
:1049BE00F090DF04E053E0FCF090FC88E0FDA3E013
:1049CE00FEC374FF9DE49E500890DF04E043E002B6
:1049DE00F090FC8A7401F0800590DF02E9F0D2A815
:1049EE0090FC8BE020E303024B2190DF04E0FE53AA
:1049FE0006037D00BE0109BD000690FC3E7401F069
:104A0E0090FC3CE0FDA3E0FE90FC3EE0FC2DFAE4C1
:104A1E003EFB90FC36E0F8A3E0F990FC5DE8F0E98F
:104A2E00A3F08A828B83C007C006C005C00412554E
:104A3E006EAA82AB83D004D005D006D00790FC8B33
:104A4E00E0F85300047900B8043EB9003BC007EC0F
:104A5E002DF8E43EF990FC8BE054F0FF90FC61E8F9
:104A6E00F0E9A3F090FC63EAF0EBA3F090FC65EFA5
:104A7E00F088828983C007C003C0021255A4D002F9
:104A8E00D003D007D0078035EC2DFDE43EFE90FC20
:104A9E008BE054F0FC90FC68EDF0EEA3F090FC6A15
:104AAE00EAF0EBA3F090FC6CECF08D828E83C007E5
:104ABE00C003C0021255EDD002D003D00790FC3EC9
:104ACE00E0603390FC8BE0FE5306F07D00BE501488
:104ADE00BD001190FC3CE0FDA3E0FE8D828E837440
:104AEE0010F0802F90FC3CE0FDA3E0FE8A048D8246
:104AFE008E83ECF0801D90FC8BE0FE5306F07D0063
:104B0E00BE500BBD000890DF027410F0800590DFE0
:104B1E0002EAF090FC3CE0FDA3E0FE90FC18EDF004
:104B2E00EEA3F090FC7EE4F0A3F090FC8CE024FF6A
:104B3E0092A0C2A490FC8CE0640124FF92A375E1C4
:104B4E00037D607EEA90DF3BE0FCBC1302802F1DEC
:104B5E00BDFF011EED4E6026A291B3920290FC8E17
:104B6E00E0FCA202E4335204EC24FF9291C007C091
:104B7E0006C005124235D005D006D00780C790FC7E
:104B8E008EE05401FC24FF9291ED4E700690FC468F
:104B9E007413F090DF3BE0FEBE131EA291B392029F
:104BAE0090FC8EE0FEA202E4335206EE24FF9291B8
:104BBE00C007124235D00780DAC29190DF02EFF0C3
:104BCE0075820122D2A87512007513007514029019
:104BDE00F81275F00012588090FC12E4F0A3F090D9
:104BEE00FC14F0A3F090FC16F090FC1704F090F873
:104BFE0011E4F0539BFC53E9EFC2A090FC8CE0242F
:104C0E00FF92A4E06401FF24FF92A375E10290DFFE
:104C1E003BE0FFBF0DF84391102290FC8D7401F024
:104C2E002290FC8DE4F022C021C0E0C0F0C082C012
:104C3E0083C007C006C005C004C003C002C001C0C7
:104C4E0000C0D075D00090FC457411F0C28990DF81
:104C5E003BE0FFBF0D028003024D7E90FC8EE054C0
:104C6E0001FF24FF929190FC77E0602590FC78E0A4
:104C7E00FEA3E0FFEE24FFFCEF34FFFD90FC78EC8A
:104C8E00F0EDA3F074FF2F400890DF04E053E0FC3A
:104C9E00F090FC1C7402F090F811E07E0025E0CE3E
:104CAE00E42412FFEE34F8FEE075F002A42412FCA8
:104CBE0074FC35F0FD8C828D83E0FAA3E0FB740169
:104CCE002AF8E43BF98C828D83E8F0E9A3F0EA2F11
:104CDE00F582EB3EF583E5D9F090F811E075F00220
:104CEE00A42412F58274FC35F0F583E0FEA3E0FFF8
:104CFE00C39402501A90F811E075F002A42412F534
:104D0E008274FC35F0F583E0FEA3E0FF4E7019903F
:104D1E00F811E075F002A42412F58274FC35F0F55A
:104D2E008374FFF07401A3F090FC78E0FEA3E0FF23
:104D3E004E6003024F2D90FC77E07003024F2D90D2
:104D4E00FC7AE0FEA3E0FF90FC78EEF0EFA3F0908B
:104D5E00FC78E0FEA3E07F0090DF02EEF090DF042F
:104D6E00E053E0FCF090DF04E043E002F0024F2D50
:104D7E0090DF3BE0FFBF13028003024F2D90FC8AB1
:104D8E00E07003024EBE90FC2EE0FEA3E0FF0EBECE
:104D9E0000010F90FC2EEEF0EFA3F090FC7EE0FEF3
:104DAE00A3E0FF90FC82E0FCA3E0FDEEB50406EF6D
:104DBE00B505028003024E9690FC80E0FEA3E04E05
:104DCE00603890FC80E0FEA3E0FFBEFF05BF00024E
:104DDE00801590FC80E0FEA3E0FF1EBEFF011F9039
:104DEE00FC80EEF0EFA3F090FC86E0FEA3E0FF90D7
:104DFE00FC7EEEF0EFA3F0024E9690FC7CE0FF906E
:104E0E00FC82E0F512A3E0F5137E008F828E8312F2
:104E1E005906AE82AF8390FC18E0FCA3E0FDEE2CA9
:104E2E00F582EF3DF583E4F090FC7CE02401FFF089
:104E3E0090FC7DE0FEEFB5060590FC7CE4F090FC66
:104E4E007CE0FF90FC82E0F512A3E0F5137E008F6C
:104E5E00828E83125906AE82AF8390FC18E0FCA3BB
:104E6E00E0FDEE2CFEEF3DFF8E828F83E070109002
:104E7E00FC21E4F090FC467412F01246DFC29190D1
:104E8E00FC7E7401F0E4A3F090FC88E0FEA3E0FF4A
:104E9E00EE24FFFCEF34FFFD90FC88ECF0EDA3F068
:104EAE00BEFF22BF001F90DF04E053E0FCF0801530
:104EBE0090FC88E0FEA3E0FF1EBEFF011F90FC8861
:104ECE00EEF0EFA3F090FC1C7403F090FC7CE0FF7E
:104EDE0090FC82E0F512A3E0F5137E008F828E83A4
:104EEE00125906AE82AF8390FC7EE0FCA3E0FD90EB
:104EFE00FC7E74012CF0E43DA3F0EC2EFEED3FFFA2
:104F0E0090FC18E0FCA3E0FDEE2CF582EF3DF5835E
:104F1E00E0F5D990FC1AE02401F0A3E03400F0D0C3
:104F2E00D0D000D001D002D003D004D005D006D00E
:104F3E0007D083D082D0F0D0E0D02132C021C0E0A3
:104F4E00C0F0C082C083C007C006C005C004C00345
:104F5E00C002C001C000C0D075D00075100090FC1A
:104F6E00457410F0539BFCE5E9420BE5E930E01C7B
:104F7E0090FC1DE0FDA3E08D067D00AB9C7C0090B7
:104F8E00FC1FED4BF0EE4CA3F053E9FEE5E9547037
:104F9E00700302515790FC1CE0FEBE0306530B8FAC
:104FAE0002515490F811E0B401009203E433FD7EF7
:104FBE00002416F582EE34FCF583E0FEBE0102807D
:104FCE000302510B90FC8BE020E1030250E390DFD3
:104FDE0004E0FE5306037D00BE0106BD00037510FE
:104FEE000190FC8BE0FE5306017D00BE0176BD00F4
:104FFE007390F811E07D0025E0CDE42412FEED342F
:10500E00F8FDAB107C00EB2EFEEC3DFDE0F97A00D6
:10501E0029CAE42412F9EA34F8FAEB29FBEC3AFC3B
:10502E00E075F002A42412F58274FC35F0F583E0ED
:10503E00F9A3E0FAA8107F00E9C398F9EA9FFA9065
:10504E00FC8BE054F0FF90FC61EBF0ECA3F090FCD5
:10505E0063E9F0EAA3F090FC65EFF08E828D831287
:10506E0055A4807190F811E07E0025E0CEE4241264
:10507E00FFEE34F8FEAC107D00EC2FFFED3EFEE0AF
:10508E007A0025E0CAE42412FBEA34F8FAEC2BFC91
:10509E00ED3AFDE075F002A42412F58274FC35F0B1
:1050AE00F583E0FAA3E0FBA8107900EAC398FAEBC7
:1050BE0099FB90FC8BE054F0F990FC68ECF0EDA3BA
:1050CE00F090FC6AEAF0EBA3F090FC6CE9F08F82B2
:1050DE008E831255ED90F811E063E001F090F81117
:1050EE00E075F002A42412F58274FC35F0F583E429
:1050FE00F0A3F090FC16F090FC17F0804790FC4661
:10510E007412F0A291B3920390FC8EE0FFA203E41E
:10511E00335207EF24FF929190F811E075F002A43C
:10512E002412F58274FC35F0F583E4F0A3F0A2911D
:10513E00B3920390FC8EE0FFA203E433FE5207EF1E
:10514E0024FF9291C29153E9CFE5E930E63790FC06
:10515E00467410F0A291B3920390FC8EE0FFA2036E
:10516E00E4335207EF24FF92911246DFA291B392DD
:10517E000390FC8EE0FFA203E433FE5207EF24FF00
:10518E00929153E9BFE5E930E73790FC467411F090
:10519E00A291B3920390FC8EE0FFA203E433520778
:1051AE00EF24FF92911246DFA291B3920390FC8EF0
:1051BE00E0FFA203E433FE5207EF24FF929153E97E
:1051CE007FD0D0D000D001D002D003D004D005D0F3
:1051DE0006D007D083D082D0F0D0E0D02132AF837A
:1051EE00E58290FC43F0EFA3F090FC41E0FEA3E0DB
:1051FE00FF90FC43E0FCA3E0FD90FC3FE0FAA3E04F
:10520E00FB8A008B011ABAFF011BE8496024EE2AC3
:10521E00F8EF3BF9E82CF8E93DF9EA2CF582EB3D85
:10522E00F583C006C007E088828983F0D007D006D8
:03523E0080CF22FC
:105CCE0000000000000001000000000000000000C5
:075CDE0000000000000000BF
:10524100AE82AF831EBEFF011FC3E49E74808FF048
:1052510063F08095F0500F7C4C7D041CBCFF011D58
:10526100EC4D70F780DE22AE82AF83EE2EFEEF337F
:10527100FF1EBEFF011FC3E49E74808FF063F080A8
:1052810095F040ED22AE82AF83D2919003E8C00742
:10529100C006125241C2919001F4125241D006D07F
:1052A10007EE30E020900019C007C006125241D22B
:1052B10091900226125241C291900019125241D08E
:1052C10006D007801E900113C007C006125241D2BA
:1052D10091900032125241C291900113125241D069
:1052E10006D007EFC313CE13CEFF80B5AFF0AE8368
:1052F100E58290FC4EF0EEA3F0EFA3F090FC4EE0BF
:10530100FDA3E0FEA3E0FF90FC4BE0FAA3E0FBA3CA
:10531100E0FCA812A913E849604DC000C0018D82CC
:105321008E838FF0125A82F98A828B838CF0125A03
:1053310082F8E9C398F98914D001D000600D851471
:1053410015751600851582851683220DBD00010E87
:1053510090FC4EEDF0EEA3F0EFA3F00ABA00010BC2
:1053610018B8FF011980AF9000002253BEFBE5BEC3
:1053710030E6FB53C6B8E5C620E6FB43BE04E5BEF6
:1053810030E6FB53C6C743E40C43E401D2B92243E0
:10539100FE0F43FF19C292C293C2A0C2A4D2A3C2FC
:1053A1009122C0E0C082C083C0D090FC47E02401BC
:1053B100F0A3E03400F0A3E03400F0A3E03400F007
:0953C100D0D0D083D082D0E032BC
:015CE50001BD
:1053CA00124632AF8290FC55EFF08F068EF005F050
:1053DA007401800225E0D5F0FB90FC56F0EF75F0E1
:1053EA0008A424F9FE74F735F0FF90FC51EEF0EFB3
:1053FA00A3F08E828F83A3A374DFF090FC51E0FEAA
:10540A00A3E0FF8E828F83A3A3A374B1F090FC5113
:10541A00E0FEA3E0FF8E828F83A3A3A3A3A374104D
:10542A00F090FC51E0FEA3E0FF74062EF582E43F03
:10543A00F583E054E0441DF090FC51E0FEA3E0FF48
:10544A0074072EF582E43FF583E0543F4440F09020
:10545A00FC51E0FEA3E0FF74072EF582E43FF583DA
:10546A00E054FC4401F0124632AF8290FC57EFF050
:10547A008F068EF005F07401800225E0D5F0FB90CE
:10548A00FC58F0EF75F008A424F9FE74F735F0FF24
:10549A0090FC53EEF0EFA3F08E828F8374DFF090CE
:1054AA00FC53E0FEA3E0FF8E828F83A374B2F090D8
:1054BA00FC53E0FEA3E0FF8E828F83A3A3A3A3A3E2
:1054CA007410F090FC53E0FEA3E0FF74062EF58200
:1054DA00E43FF583E054E0441EF090FC53E0FEA361
:1054EA00E0FF74072EF582E43FF583E054CF4410C1
:1054FA00F090FC53E0FEA3E0FF74072EF582E43F30
:10550A00F583E054FC4401F043A91043B91022AFDB
:10551A0083E58290FC5BF0EFA3F0E5B330E3FB9008
:10552A00FC51E0FEA3E0FF90FC5BE0FCA3E0FD8DF4
:10553A00038B028E828F83EAF090FC51E0FEA3E097
:10554A00FF8E828F83A3ECF090FC56E0FF42D600D8
:10555A0090FC5AE0FF90FC59E04F4401F5B3E5B3E3
:10556A0030E3FB22AF83E58290FC5FF0EFA3F0907B
:10557A00FC5FE0FEA3E0FF90FC5DE0FCA3E0FDEC35
:10558A00540F6011EC2EF582ED3FF5830CBC00013F
:10559A000DE4F080EA8C828D8322AF83E58290FC51
:1055AA0066F0EFA3F090FC66E0FEA3E0FF90FC61DA
:1055BA00E0FCA3E0FD90FC63E0FAA3E0FB90FC654D
:1055CA00E0F990FC6FECF0EDA3F090FC71EAF0EBDF
:1055DA00A3F090FC73E4F090FC74E9F08E828F8360
:1055EA00025637AF83E58290FC6DF0EFA3F090FC92
:1055FA006DE0FEA3E0FF90FC68E0FCA3E0FD90FCF8
:10560A006AE0FAA3E0FB90FC6CE0F990FC6FECF026
:10561A00EDA3F090FC71EAF0EBA3F090FC73740236
:10562A00F090FC74E9F08E828F83025637AF83E5DF
:10563A008290FC75F0EFA3F0E5B330E3FB90FC75C4
:10564A00E0FEA3E0FF90FC6FE0F518A3E0F51990E7
:10565A00FC74E0FB74505BF51790FC73E0F94B4463
:10566A0001FB740149F51690FC71E0F512A3E0F50F
:10567A0013E4F514F515C3E5149512E515951340D1
:10568A000122C00390FC51E0F8A3E0FBE5142EF9D7
:10569A00E5153FFA8A058D0488828B83ECF090FC2D
:1056AA0051E0FCA3E0FD8C828D83A3E9F090FC53CA
:1056BA00E0FCA3E0FD8C828D83A3A3E5142518FCEE
:1056CA00E5153519FD8D038B02EAF090FC53E0FADB
:1056DA00A3E0FB8A828B83A3A3A3ECF090FC56E0A1
:1056EA00FD90FC58E0FC4D42D60000D003E517605F
:1056FA0017E51224F0FCE51334FFFDECB51409EDAF
:10570A00B515058516B380028BB3E5B330E3FB7498
:10571A00102514F514E43515F5150256801257CAEA
:10572A00BC0003025991EF60FA30D502B2D1E58389
:10573A00B4FF030259A7E582B4FF030259A72583E0
:10574A0040072482400B02599124831450030259C2
:10575A00A7F582EA8DF0A4A8F0EA8EF0A428F8E46E
:10576A0035F0F9EB8DF0A428E935F0F9E433CA8F66
:10577A00F0A429F9EA35F0FAEBF88EF0A429F9EA4F
:10578A0035F0FAE433FBEC8DF0A429F9EA35F0FAA6
:10579A00E43BFBE88FF0A42AFAEB35F0FBE433CCC8
:1057AA00FD8EF0A42AFAEB35F0FBE43CFCED8FF019
:1057BA00A42BFBEC35F0FC20E70312584D0259707C
:1057CA00AA82AB83A2F73392D1F5826002D2F7ACF8
:1057DA00F0E58124F9F8E6FD08E6FE0886F008E619
:0E57EA00A2F73392D5F5836002D2F7AFF0221A
:0614BA00E478FFF6D8FD06
:1057F800AD82AE83AFF08D178E188F1985121A857A
:10580800131B85141CA815A9168803890418B8FF4A
:105818000119EB4C6025851A82851B83851CF012C3
:105828005A82FCA385821A85831B8D828E838FF012
:10583800EC1258EBA3AD82AE8380CE851782851813
:10584800838519F0227804EC7011E58224F8500A57
:10585800F582E4C9CACBFCD8EF22EC782005822077
:10586800E713D5820122C3E933F9EA33FAEB33FBB4
:10587800EC33FCD8EA158222AC82AD83AE13AF14A8
:10588800BE0004EF600C1F0FE5121258EBA3DEFAFE
:07589800DFF88C828D8322F2
:101498007918E94400601B7A01905CCE78777593DF
:1014A800FCE493F2A308B800020593D9F4DAF275C4
:0214B80093FFA0
:10589F00FCABF0AA83A982749EC2D1F58212584D37
:1058AF000259707F9E1258D930D103025991C3EF1C
:1058BF009582500974FFF5F0F583F5822279001275
:1058CF005A9E89828A838BF0EC22AA82AB83A2F73D
:1058DF003392D1F5826002D2F7ACF02220F711306B
:1058EF00F6138883A88220F509F6A8837583002212
:1058FF0080FEF280F5F022E5828512F0A4C582C009
:10590F00F08513F0A4D0F025F0C5838512F0A425FF
:10591F0083F58322E512451360467A01E51225E0EF
:10592F00F512E513334012F513E5829512E58395D1
:10593F001340030A80E6C3E51313F513E51213F5BD
:10594F0012C3E5829512F5F0E58395134005F583B3
:10595F0085F082C3E51313F513E51213F512DAE19F
:01596F002215
:1014C0007800E84400600A79007593F0E4F309D8E5
:1014D000FC7877E8440C600C790D90F000E4F0A300
:0414E000D8FCD9FA61
:02148900E4730A
:10597000B98003EA13B34010EA2401FAE43BFBE4E4
:105980003CFC50047C800582BC000EBB000BBA00BE
:1059900008E4F5F0F583F58222A2D1E582138CF0BC
:1059A00092F78B838A8222E4F583F58275F080F486
:1059B000A2D11322E4F583F58275F0C0747F221220
:1059C00057CA30D502B2D1BF0009BC00030259B496
:1059D0000259A7BC0003025991E583B4FF0BE5828D
:1059E000B4FF030259B4025991E582B4FF0302598E
:1059F000A7C395835007247F400B0259912480143C
:105A000050030259A7F582C3ED9AEE9BEF9C40111B
:105A10001582C3EA33F9EB33FAEC33FBE433FC8051
:105A200005E4CCCBCAF9C08275F019C3E99DEA9EA2
:105A3000EB9FEC9400D5F002802D400EE99DF9EA31
:105A40009EFAEB9FFBEC9400FCC3B3E833F8E582CD
:105A500033F582E58333F583C3E933F9EA33FAEBAF
:105A600033FBEC33FC80C4B3E4F938FAE43582FB51
:105A7000E43583FCD082500405827C8012584D02AC
:025A8000598843
:0D148B0075814E125AE1E58260030214865D
:105A820020F71430F6148883A88220F507E6A8834D
:105A920075830022E280F7E49322E0226040F82539
:105AA20082500274FFF582E824F8501ECCCBCAF96A
:105AB200E4CC24F85014CBCAF9E4CB24F8500BCA36
:105AC200F9E4CA24F8500379002224086010F8C3CC
:105AD200EC13FCEB13FBEA13FAE913F9D8F1227584
:035AE2008200221D
:00000001FF
